{
	"contracts/Bank.sol": {
		"Bank": {
			"abi": [
				{
					"inputs": [
						{
							"internalType": "address",
							"name": "_token",
							"type": "address"
						}
					],
					"stateMutability": "nonpayable",
					"type": "constructor"
				},
				{
					"inputs": [
						{
							"internalType": "uint256",
							"name": "amount",
							"type": "uint256"
						}
					],
					"name": "deposit",
					"outputs": [],
					"stateMutability": "nonpayable",
					"type": "function"
				},
				{
					"inputs": [
						{
							"internalType": "address",
							"name": "",
							"type": "address"
						}
					],
					"name": "deposited",
					"outputs": [
						{
							"internalType": "uint256",
							"name": "",
							"type": "uint256"
						}
					],
					"stateMutability": "view",
					"type": "function"
				},
				{
					"inputs": [],
					"name": "myBalance",
					"outputs": [
						{
							"internalType": "uint256",
							"name": "balance",
							"type": "uint256"
						}
					],
					"stateMutability": "view",
					"type": "function"
				}
			],
			"devdoc": {
				"kind": "dev",
				"methods": {},
				"version": 1
			},
			"evm": {
				"assembly": "    /* \"contracts/Bank.sol\":115:1205  contract Bank{... */\n  mstore(0x40, 0xa0)\n    /* \"contracts/Bank.sol\":280:338  constructor(address _token){... */\n  callvalue\n  dup1\n  iszero\n  tag_1\n  jumpi\n  0x00\n  dup1\n  revert\ntag_1:\n  pop\n  mload(0x40)\n  sub(codesize, bytecodeSize)\n  dup1\n  bytecodeSize\n  dup4\n  codecopy\n  dup2\n  dup2\n  add\n  0x40\n  mstore\n  dup2\n  add\n  swap1\n  tag_2\n  swap2\n  swap1\n  tag_3\n  jump\t// in\ntag_2:\n    /* \"contracts/Bank.sol\":325:331  _token */\n  dup1\n    /* \"contracts/Bank.sol\":317:331  token = _token */\n  0xffffffffffffffffffffffffffffffffffffffff\n  and\n  0x80\n  dup2\n  0xffffffffffffffffffffffffffffffffffffffff\n  and\n  dup2\n  mstore\n  pop\n  pop\n    /* \"contracts/Bank.sol\":280:338  constructor(address _token){... */\n  pop\n    /* \"contracts/Bank.sol\":115:1205  contract Bank{... */\n  jump(tag_6)\n    /* \"#utility.yul\":88:205   */\ntag_8:\n    /* \"#utility.yul\":197:198   */\n  0x00\n    /* \"#utility.yul\":194:195   */\n  dup1\n    /* \"#utility.yul\":187:199   */\n  revert\n    /* \"#utility.yul\":334:460   */\ntag_10:\n    /* \"#utility.yul\":371:378   */\n  0x00\n    /* \"#utility.yul\":411:453   */\n  0xffffffffffffffffffffffffffffffffffffffff\n    /* \"#utility.yul\":404:409   */\n  dup3\n    /* \"#utility.yul\":400:454   */\n  and\n    /* \"#utility.yul\":389:454   */\n  swap1\n  pop\n    /* \"#utility.yul\":334:460   */\n  swap2\n  swap1\n  pop\n  jump\t// out\n    /* \"#utility.yul\":466:562   */\ntag_11:\n    /* \"#utility.yul\":503:510   */\n  0x00\n    /* \"#utility.yul\":532:556   */\n  tag_20\n    /* \"#utility.yul\":550:555   */\n  dup3\n    /* \"#utility.yul\":532:556   */\n  tag_10\n  jump\t// in\ntag_20:\n    /* \"#utility.yul\":521:556   */\n  swap1\n  pop\n    /* \"#utility.yul\":466:562   */\n  swap2\n  swap1\n  pop\n  jump\t// out\n    /* \"#utility.yul\":568:690   */\ntag_12:\n    /* \"#utility.yul\":641:665   */\n  tag_22\n    /* \"#utility.yul\":659:664   */\n  dup2\n    /* \"#utility.yul\":641:665   */\n  tag_11\n  jump\t// in\ntag_22:\n    /* \"#utility.yul\":634:639   */\n  dup2\n    /* \"#utility.yul\":631:666   */\n  eq\n    /* \"#utility.yul\":621:684   */\n  tag_23\n  jumpi\n    /* \"#utility.yul\":680:681   */\n  0x00\n    /* \"#utility.yul\":677:678   */\n  dup1\n    /* \"#utility.yul\":670:682   */\n  revert\n    /* \"#utility.yul\":621:684   */\ntag_23:\n    /* \"#utility.yul\":568:690   */\n  pop\n  jump\t// out\n    /* \"#utility.yul\":696:839   */\ntag_13:\n    /* \"#utility.yul\":753:758   */\n  0x00\n    /* \"#utility.yul\":784:790   */\n  dup2\n    /* \"#utility.yul\":778:791   */\n  mload\n    /* \"#utility.yul\":769:791   */\n  swap1\n  pop\n    /* \"#utility.yul\":800:833   */\n  tag_25\n    /* \"#utility.yul\":827:832   */\n  dup2\n    /* \"#utility.yul\":800:833   */\n  tag_12\n  jump\t// in\ntag_25:\n    /* \"#utility.yul\":696:839   */\n  swap3\n  swap2\n  pop\n  pop\n  jump\t// out\n    /* \"#utility.yul\":845:1196   */\ntag_3:\n    /* \"#utility.yul\":915:921   */\n  0x00\n    /* \"#utility.yul\":964:966   */\n  0x20\n    /* \"#utility.yul\":952:961   */\n  dup3\n    /* \"#utility.yul\":943:950   */\n  dup5\n    /* \"#utility.yul\":939:962   */\n  sub\n    /* \"#utility.yul\":935:967   */\n  slt\n    /* \"#utility.yul\":932:1051   */\n  iszero\n  tag_27\n  jumpi\n    /* \"#utility.yul\":970:1049   */\n  tag_28\n  tag_8\n  jump\t// in\ntag_28:\n    /* \"#utility.yul\":932:1051   */\ntag_27:\n    /* \"#utility.yul\":1090:1091   */\n  0x00\n    /* \"#utility.yul\":1115:1179   */\n  tag_29\n    /* \"#utility.yul\":1171:1178   */\n  dup5\n    /* \"#utility.yul\":1162:1168   */\n  dup3\n    /* \"#utility.yul\":1151:1160   */\n  dup6\n    /* \"#utility.yul\":1147:1169   */\n  add\n    /* \"#utility.yul\":1115:1179   */\n  tag_13\n  jump\t// in\ntag_29:\n    /* \"#utility.yul\":1105:1179   */\n  swap2\n  pop\n    /* \"#utility.yul\":1061:1189   */\n  pop\n    /* \"#utility.yul\":845:1196   */\n  swap3\n  swap2\n  pop\n  pop\n  jump\t// out\n    /* \"contracts/Bank.sol\":115:1205  contract Bank{... */\ntag_6:\n  mload(0x80)\n  codecopy(0x00, dataOffset(sub_0), dataSize(sub_0))\n  0x00\n  assignImmutable(\"0x04e57633024368235fc5219bfb9802814291d3a7b9a68d0aeb7bd3d297ac474e\")\n  return(0x00, dataSize(sub_0))\nstop\n\nsub_0: assembly {\n        /* \"contracts/Bank.sol\":115:1205  contract Bank{... */\n      mstore(0x40, 0x80)\n      callvalue\n      dup1\n      iszero\n      tag_1\n      jumpi\n      0x00\n      dup1\n      revert\n    tag_1:\n      pop\n      jumpi(tag_2, lt(calldatasize, 0x04))\n      shr(0xe0, calldataload(0x00))\n      dup1\n      0xb6b55f25\n      eq\n      tag_3\n      jumpi\n      dup1\n      0xc9116b69\n      eq\n      tag_4\n      jumpi\n      dup1\n      0xcb13cddb\n      eq\n      tag_5\n      jumpi\n    tag_2:\n      0x00\n      dup1\n      revert\n        /* \"contracts/Bank.sol\":727:1190  function deposit(uint amount) public {... */\n    tag_3:\n      tag_6\n      0x04\n      dup1\n      calldatasize\n      sub\n      dup2\n      add\n      swap1\n      tag_7\n      swap2\n      swap1\n      tag_8\n      jump\t// in\n    tag_7:\n      tag_9\n      jump\t// in\n    tag_6:\n      stop\n        /* \"contracts/Bank.sol\":424:649  function myBalance() public view returns(uint balance){... */\n    tag_4:\n      tag_10\n      tag_11\n      jump\t// in\n    tag_10:\n      mload(0x40)\n      tag_12\n      swap2\n      swap1\n      tag_13\n      jump\t// in\n    tag_12:\n      mload(0x40)\n      dup1\n      swap2\n      sub\n      swap1\n      return\n        /* \"contracts/Bank.sol\":167:208  mapping(address => uint) public deposited */\n    tag_5:\n      tag_14\n      0x04\n      dup1\n      calldatasize\n      sub\n      dup2\n      add\n      swap1\n      tag_15\n      swap2\n      swap1\n      tag_16\n      jump\t// in\n    tag_15:\n      tag_17\n      jump\t// in\n    tag_14:\n      mload(0x40)\n      tag_18\n      swap2\n      swap1\n      tag_13\n      jump\t// in\n    tag_18:\n      mload(0x40)\n      dup1\n      swap2\n      sub\n      swap1\n      return\n        /* \"contracts/Bank.sol\":727:1190  function deposit(uint amount) public {... */\n    tag_9:\n        /* \"contracts/Bank.sol\":869:877  10 ** 18 */\n      0x0de0b6b3a7640000\n        /* \"contracts/Bank.sol\":860:866  amount */\n      dup2\n        /* \"contracts/Bank.sol\":860:877  amount * 10 ** 18 */\n      tag_20\n      swap2\n      swap1\n      tag_21\n      jump\t// in\n    tag_20:\n        /* \"contracts/Bank.sol\":851:877  amount = amount * 10 ** 18 */\n      swap1\n      pop\n        /* \"contracts/Bank.sol\":1003:1008  token */\n      immutable(\"0x04e57633024368235fc5219bfb9802814291d3a7b9a68d0aeb7bd3d297ac474e\")\n        /* \"contracts/Bank.sol\":996:1022  IERC20(token).transferFrom */\n      0xffffffffffffffffffffffffffffffffffffffff\n      and\n      0x23b872dd\n        /* \"contracts/Bank.sol\":1023:1033  msg.sender */\n      caller\n        /* \"contracts/Bank.sol\":1043:1047  this */\n      address\n        /* \"contracts/Bank.sol\":1050:1056  amount */\n      dup5\n        /* \"contracts/Bank.sol\":996:1057  IERC20(token).transferFrom(msg.sender, address(this), amount) */\n      mload(0x40)\n      dup5\n      0xffffffff\n      and\n      0xe0\n      shl\n      dup2\n      mstore\n      0x04\n      add\n      tag_22\n      swap4\n      swap3\n      swap2\n      swap1\n      tag_23\n      jump\t// in\n    tag_22:\n      0x20\n      mload(0x40)\n      dup1\n      dup4\n      sub\n      dup2\n      0x00\n      dup8\n      gas\n      call\n      iszero\n      dup1\n      iszero\n      tag_25\n      jumpi\n      returndatasize\n      0x00\n      dup1\n      returndatacopy\n      revert(0x00, returndatasize)\n    tag_25:\n      pop\n      pop\n      pop\n      pop\n      mload(0x40)\n      returndatasize\n      not(0x1f)\n      0x1f\n      dup3\n      add\n      and\n      dup3\n      add\n      dup1\n      0x40\n      mstore\n      pop\n      dup2\n      add\n      swap1\n      tag_26\n      swap2\n      swap1\n      tag_27\n      jump\t// in\n    tag_26:\n        /* \"contracts/Bank.sol\":988:1077  require(IERC20(token).transferFrom(msg.sender, address(this), amount), \"transfer error!\") */\n      tag_28\n      jumpi\n      mload(0x40)\n      0x08c379a000000000000000000000000000000000000000000000000000000000\n      dup2\n      mstore\n      0x04\n      add\n      tag_29\n      swap1\n      tag_30\n      jump\t// in\n    tag_29:\n      mload(0x40)\n      dup1\n      swap2\n      sub\n      swap1\n      revert\n    tag_28:\n        /* \"contracts/Bank.sol\":1175:1181  amount */\n      dup1\n        /* \"contracts/Bank.sol\":1150:1159  deposited */\n      0x00\n        /* \"contracts/Bank.sol\":1150:1171  deposited[msg.sender] */\n      dup1\n        /* \"contracts/Bank.sol\":1160:1170  msg.sender */\n      caller\n        /* \"contracts/Bank.sol\":1150:1171  deposited[msg.sender] */\n      0xffffffffffffffffffffffffffffffffffffffff\n      and\n      0xffffffffffffffffffffffffffffffffffffffff\n      and\n      dup2\n      mstore\n      0x20\n      add\n      swap1\n      dup2\n      mstore\n      0x20\n      add\n      0x00\n      keccak256\n      0x00\n        /* \"contracts/Bank.sol\":1150:1181  deposited[msg.sender] += amount */\n      dup3\n      dup3\n      sload\n      tag_31\n      swap2\n      swap1\n      tag_32\n      jump\t// in\n    tag_31:\n      swap3\n      pop\n      pop\n      dup2\n      swap1\n      sstore\n      pop\n        /* \"contracts/Bank.sol\":727:1190  function deposit(uint amount) public {... */\n      pop\n      jump\t// out\n        /* \"contracts/Bank.sol\":424:649  function myBalance() public view returns(uint balance){... */\n    tag_11:\n        /* \"contracts/Bank.sol\":465:477  uint balance */\n      0x00\n        /* \"contracts/Bank.sol\":498:507  deposited */\n      dup1\n        /* \"contracts/Bank.sol\":498:519  deposited[msg.sender] */\n      0x00\n        /* \"contracts/Bank.sol\":508:518  msg.sender */\n      caller\n        /* \"contracts/Bank.sol\":498:519  deposited[msg.sender] */\n      0xffffffffffffffffffffffffffffffffffffffff\n      and\n      0xffffffffffffffffffffffffffffffffffffffff\n      and\n      dup2\n      mstore\n      0x20\n      add\n      swap1\n      dup2\n      mstore\n      0x20\n      add\n      0x00\n      keccak256\n      sload\n        /* \"contracts/Bank.sol\":488:519  balance = deposited[msg.sender] */\n      swap1\n      pop\n        /* \"contracts/Bank.sol\":592:600  10 ** 18 */\n      0x0de0b6b3a7640000\n        /* \"contracts/Bank.sol\":581:588  balance */\n      dup2\n        /* \"contracts/Bank.sol\":581:601  balance / (10 ** 18) */\n      tag_34\n      swap2\n      swap1\n      tag_35\n      jump\t// in\n    tag_34:\n        /* \"contracts/Bank.sol\":571:601  balance = balance / (10 ** 18) */\n      swap1\n      pop\n        /* \"contracts/Bank.sol\":424:649  function myBalance() public view returns(uint balance){... */\n      swap1\n      jump\t// out\n        /* \"contracts/Bank.sol\":167:208  mapping(address => uint) public deposited */\n    tag_17:\n      mstore(0x20, 0x00)\n      dup1\n      0x00\n      mstore\n      keccak256(0x00, 0x40)\n      0x00\n      swap2\n      pop\n      swap1\n      pop\n      sload\n      dup2\n      jump\t// out\n        /* \"#utility.yul\":88:205   */\n    tag_37:\n        /* \"#utility.yul\":197:198   */\n      0x00\n        /* \"#utility.yul\":194:195   */\n      dup1\n        /* \"#utility.yul\":187:199   */\n      revert\n        /* \"#utility.yul\":334:411   */\n    tag_39:\n        /* \"#utility.yul\":371:378   */\n      0x00\n        /* \"#utility.yul\":400:405   */\n      dup2\n        /* \"#utility.yul\":389:405   */\n      swap1\n      pop\n        /* \"#utility.yul\":334:411   */\n      swap2\n      swap1\n      pop\n      jump\t// out\n        /* \"#utility.yul\":417:539   */\n    tag_40:\n        /* \"#utility.yul\":490:514   */\n      tag_62\n        /* \"#utility.yul\":508:513   */\n      dup2\n        /* \"#utility.yul\":490:514   */\n      tag_39\n      jump\t// in\n    tag_62:\n        /* \"#utility.yul\":483:488   */\n      dup2\n        /* \"#utility.yul\":480:515   */\n      eq\n        /* \"#utility.yul\":470:533   */\n      tag_63\n      jumpi\n        /* \"#utility.yul\":529:530   */\n      0x00\n        /* \"#utility.yul\":526:527   */\n      dup1\n        /* \"#utility.yul\":519:531   */\n      revert\n        /* \"#utility.yul\":470:533   */\n    tag_63:\n        /* \"#utility.yul\":417:539   */\n      pop\n      jump\t// out\n        /* \"#utility.yul\":545:684   */\n    tag_41:\n        /* \"#utility.yul\":591:596   */\n      0x00\n        /* \"#utility.yul\":629:635   */\n      dup2\n        /* \"#utility.yul\":616:636   */\n      calldataload\n        /* \"#utility.yul\":607:636   */\n      swap1\n      pop\n        /* \"#utility.yul\":645:678   */\n      tag_65\n        /* \"#utility.yul\":672:677   */\n      dup2\n        /* \"#utility.yul\":645:678   */\n      tag_40\n      jump\t// in\n    tag_65:\n        /* \"#utility.yul\":545:684   */\n      swap3\n      swap2\n      pop\n      pop\n      jump\t// out\n        /* \"#utility.yul\":690:1019   */\n    tag_8:\n        /* \"#utility.yul\":749:755   */\n      0x00\n        /* \"#utility.yul\":798:800   */\n      0x20\n        /* \"#utility.yul\":786:795   */\n      dup3\n        /* \"#utility.yul\":777:784   */\n      dup5\n        /* \"#utility.yul\":773:796   */\n      sub\n        /* \"#utility.yul\":769:801   */\n      slt\n        /* \"#utility.yul\":766:885   */\n      iszero\n      tag_67\n      jumpi\n        /* \"#utility.yul\":804:883   */\n      tag_68\n      tag_37\n      jump\t// in\n    tag_68:\n        /* \"#utility.yul\":766:885   */\n    tag_67:\n        /* \"#utility.yul\":924:925   */\n      0x00\n        /* \"#utility.yul\":949:1002   */\n      tag_69\n        /* \"#utility.yul\":994:1001   */\n      dup5\n        /* \"#utility.yul\":985:991   */\n      dup3\n        /* \"#utility.yul\":974:983   */\n      dup6\n        /* \"#utility.yul\":970:992   */\n      add\n        /* \"#utility.yul\":949:1002   */\n      tag_41\n      jump\t// in\n    tag_69:\n        /* \"#utility.yul\":939:1002   */\n      swap2\n      pop\n        /* \"#utility.yul\":895:1012   */\n      pop\n        /* \"#utility.yul\":690:1019   */\n      swap3\n      swap2\n      pop\n      pop\n      jump\t// out\n        /* \"#utility.yul\":1025:1143   */\n    tag_42:\n        /* \"#utility.yul\":1112:1136   */\n      tag_71\n        /* \"#utility.yul\":1130:1135   */\n      dup2\n        /* \"#utility.yul\":1112:1136   */\n      tag_39\n      jump\t// in\n    tag_71:\n        /* \"#utility.yul\":1107:1110   */\n      dup3\n        /* \"#utility.yul\":1100:1137   */\n      mstore\n        /* \"#utility.yul\":1025:1143   */\n      pop\n      pop\n      jump\t// out\n        /* \"#utility.yul\":1149:1371   */\n    tag_13:\n        /* \"#utility.yul\":1242:1246   */\n      0x00\n        /* \"#utility.yul\":1280:1282   */\n      0x20\n        /* \"#utility.yul\":1269:1278   */\n      dup3\n        /* \"#utility.yul\":1265:1283   */\n      add\n        /* \"#utility.yul\":1257:1283   */\n      swap1\n      pop\n        /* \"#utility.yul\":1293:1364   */\n      tag_73\n        /* \"#utility.yul\":1361:1362   */\n      0x00\n        /* \"#utility.yul\":1350:1359   */\n      dup4\n        /* \"#utility.yul\":1346:1363   */\n      add\n        /* \"#utility.yul\":1337:1343   */\n      dup5\n        /* \"#utility.yul\":1293:1364   */\n      tag_42\n      jump\t// in\n    tag_73:\n        /* \"#utility.yul\":1149:1371   */\n      swap3\n      swap2\n      pop\n      pop\n      jump\t// out\n        /* \"#utility.yul\":1377:1503   */\n    tag_43:\n        /* \"#utility.yul\":1414:1421   */\n      0x00\n        /* \"#utility.yul\":1454:1496   */\n      0xffffffffffffffffffffffffffffffffffffffff\n        /* \"#utility.yul\":1447:1452   */\n      dup3\n        /* \"#utility.yul\":1443:1497   */\n      and\n        /* \"#utility.yul\":1432:1497   */\n      swap1\n      pop\n        /* \"#utility.yul\":1377:1503   */\n      swap2\n      swap1\n      pop\n      jump\t// out\n        /* \"#utility.yul\":1509:1605   */\n    tag_44:\n        /* \"#utility.yul\":1546:1553   */\n      0x00\n        /* \"#utility.yul\":1575:1599   */\n      tag_76\n        /* \"#utility.yul\":1593:1598   */\n      dup3\n        /* \"#utility.yul\":1575:1599   */\n      tag_43\n      jump\t// in\n    tag_76:\n        /* \"#utility.yul\":1564:1599   */\n      swap1\n      pop\n        /* \"#utility.yul\":1509:1605   */\n      swap2\n      swap1\n      pop\n      jump\t// out\n        /* \"#utility.yul\":1611:1733   */\n    tag_45:\n        /* \"#utility.yul\":1684:1708   */\n      tag_78\n        /* \"#utility.yul\":1702:1707   */\n      dup2\n        /* \"#utility.yul\":1684:1708   */\n      tag_44\n      jump\t// in\n    tag_78:\n        /* \"#utility.yul\":1677:1682   */\n      dup2\n        /* \"#utility.yul\":1674:1709   */\n      eq\n        /* \"#utility.yul\":1664:1727   */\n      tag_79\n      jumpi\n        /* \"#utility.yul\":1723:1724   */\n      0x00\n        /* \"#utility.yul\":1720:1721   */\n      dup1\n        /* \"#utility.yul\":1713:1725   */\n      revert\n        /* \"#utility.yul\":1664:1727   */\n    tag_79:\n        /* \"#utility.yul\":1611:1733   */\n      pop\n      jump\t// out\n        /* \"#utility.yul\":1739:1878   */\n    tag_46:\n        /* \"#utility.yul\":1785:1790   */\n      0x00\n        /* \"#utility.yul\":1823:1829   */\n      dup2\n        /* \"#utility.yul\":1810:1830   */\n      calldataload\n        /* \"#utility.yul\":1801:1830   */\n      swap1\n      pop\n        /* \"#utility.yul\":1839:1872   */\n      tag_81\n        /* \"#utility.yul\":1866:1871   */\n      dup2\n        /* \"#utility.yul\":1839:1872   */\n      tag_45\n      jump\t// in\n    tag_81:\n        /* \"#utility.yul\":1739:1878   */\n      swap3\n      swap2\n      pop\n      pop\n      jump\t// out\n        /* \"#utility.yul\":1884:2213   */\n    tag_16:\n        /* \"#utility.yul\":1943:1949   */\n      0x00\n        /* \"#utility.yul\":1992:1994   */\n      0x20\n        /* \"#utility.yul\":1980:1989   */\n      dup3\n        /* \"#utility.yul\":1971:1978   */\n      dup5\n        /* \"#utility.yul\":1967:1990   */\n      sub\n        /* \"#utility.yul\":1963:1995   */\n      slt\n        /* \"#utility.yul\":1960:2079   */\n      iszero\n      tag_83\n      jumpi\n        /* \"#utility.yul\":1998:2077   */\n      tag_84\n      tag_37\n      jump\t// in\n    tag_84:\n        /* \"#utility.yul\":1960:2079   */\n    tag_83:\n        /* \"#utility.yul\":2118:2119   */\n      0x00\n        /* \"#utility.yul\":2143:2196   */\n      tag_85\n        /* \"#utility.yul\":2188:2195   */\n      dup5\n        /* \"#utility.yul\":2179:2185   */\n      dup3\n        /* \"#utility.yul\":2168:2177   */\n      dup6\n        /* \"#utility.yul\":2164:2186   */\n      add\n        /* \"#utility.yul\":2143:2196   */\n      tag_46\n      jump\t// in\n    tag_85:\n        /* \"#utility.yul\":2133:2196   */\n      swap2\n      pop\n        /* \"#utility.yul\":2089:2206   */\n      pop\n        /* \"#utility.yul\":1884:2213   */\n      swap3\n      swap2\n      pop\n      pop\n      jump\t// out\n        /* \"#utility.yul\":2219:2399   */\n    tag_47:\n        /* \"#utility.yul\":2267:2344   */\n      0x4e487b7100000000000000000000000000000000000000000000000000000000\n        /* \"#utility.yul\":2264:2265   */\n      0x00\n        /* \"#utility.yul\":2257:2345   */\n      mstore\n        /* \"#utility.yul\":2364:2368   */\n      0x11\n        /* \"#utility.yul\":2361:2362   */\n      0x04\n        /* \"#utility.yul\":2354:2369   */\n      mstore\n        /* \"#utility.yul\":2388:2392   */\n      0x24\n        /* \"#utility.yul\":2385:2386   */\n      0x00\n        /* \"#utility.yul\":2378:2393   */\n      revert\n        /* \"#utility.yul\":2405:2815   */\n    tag_21:\n        /* \"#utility.yul\":2445:2452   */\n      0x00\n        /* \"#utility.yul\":2468:2488   */\n      tag_88\n        /* \"#utility.yul\":2486:2487   */\n      dup3\n        /* \"#utility.yul\":2468:2488   */\n      tag_39\n      jump\t// in\n    tag_88:\n        /* \"#utility.yul\":2463:2488   */\n      swap2\n      pop\n        /* \"#utility.yul\":2502:2522   */\n      tag_89\n        /* \"#utility.yul\":2520:2521   */\n      dup4\n        /* \"#utility.yul\":2502:2522   */\n      tag_39\n      jump\t// in\n    tag_89:\n        /* \"#utility.yul\":2497:2522   */\n      swap3\n      pop\n        /* \"#utility.yul\":2557:2558   */\n      dup3\n        /* \"#utility.yul\":2554:2555   */\n      dup3\n        /* \"#utility.yul\":2550:2559   */\n      mul\n        /* \"#utility.yul\":2579:2609   */\n      tag_90\n        /* \"#utility.yul\":2597:2608   */\n      dup2\n        /* \"#utility.yul\":2579:2609   */\n      tag_39\n      jump\t// in\n    tag_90:\n        /* \"#utility.yul\":2568:2609   */\n      swap2\n      pop\n        /* \"#utility.yul\":2758:2759   */\n      dup3\n        /* \"#utility.yul\":2749:2756   */\n      dup3\n        /* \"#utility.yul\":2745:2760   */\n      div\n        /* \"#utility.yul\":2742:2743   */\n      dup5\n        /* \"#utility.yul\":2739:2761   */\n      eq\n        /* \"#utility.yul\":2719:2720   */\n      dup4\n        /* \"#utility.yul\":2712:2721   */\n      iszero\n        /* \"#utility.yul\":2692:2775   */\n      or\n        /* \"#utility.yul\":2669:2808   */\n      tag_91\n      jumpi\n        /* \"#utility.yul\":2788:2806   */\n      tag_92\n      tag_47\n      jump\t// in\n    tag_92:\n        /* \"#utility.yul\":2669:2808   */\n    tag_91:\n        /* \"#utility.yul\":2453:2815   */\n      pop\n        /* \"#utility.yul\":2405:2815   */\n      swap3\n      swap2\n      pop\n      pop\n      jump\t// out\n        /* \"#utility.yul\":2821:2939   */\n    tag_48:\n        /* \"#utility.yul\":2908:2932   */\n      tag_94\n        /* \"#utility.yul\":2926:2931   */\n      dup2\n        /* \"#utility.yul\":2908:2932   */\n      tag_44\n      jump\t// in\n    tag_94:\n        /* \"#utility.yul\":2903:2906   */\n      dup3\n        /* \"#utility.yul\":2896:2933   */\n      mstore\n        /* \"#utility.yul\":2821:2939   */\n      pop\n      pop\n      jump\t// out\n        /* \"#utility.yul\":2945:3387   */\n    tag_23:\n        /* \"#utility.yul\":3094:3098   */\n      0x00\n        /* \"#utility.yul\":3132:3134   */\n      0x60\n        /* \"#utility.yul\":3121:3130   */\n      dup3\n        /* \"#utility.yul\":3117:3135   */\n      add\n        /* \"#utility.yul\":3109:3135   */\n      swap1\n      pop\n        /* \"#utility.yul\":3145:3216   */\n      tag_96\n        /* \"#utility.yul\":3213:3214   */\n      0x00\n        /* \"#utility.yul\":3202:3211   */\n      dup4\n        /* \"#utility.yul\":3198:3215   */\n      add\n        /* \"#utility.yul\":3189:3195   */\n      dup7\n        /* \"#utility.yul\":3145:3216   */\n      tag_48\n      jump\t// in\n    tag_96:\n        /* \"#utility.yul\":3226:3298   */\n      tag_97\n        /* \"#utility.yul\":3294:3296   */\n      0x20\n        /* \"#utility.yul\":3283:3292   */\n      dup4\n        /* \"#utility.yul\":3279:3297   */\n      add\n        /* \"#utility.yul\":3270:3276   */\n      dup6\n        /* \"#utility.yul\":3226:3298   */\n      tag_48\n      jump\t// in\n    tag_97:\n        /* \"#utility.yul\":3308:3380   */\n      tag_98\n        /* \"#utility.yul\":3376:3378   */\n      0x40\n        /* \"#utility.yul\":3365:3374   */\n      dup4\n        /* \"#utility.yul\":3361:3379   */\n      add\n        /* \"#utility.yul\":3352:3358   */\n      dup5\n        /* \"#utility.yul\":3308:3380   */\n      tag_42\n      jump\t// in\n    tag_98:\n        /* \"#utility.yul\":2945:3387   */\n      swap5\n      swap4\n      pop\n      pop\n      pop\n      pop\n      jump\t// out\n        /* \"#utility.yul\":3393:3483   */\n    tag_49:\n        /* \"#utility.yul\":3427:3434   */\n      0x00\n        /* \"#utility.yul\":3470:3475   */\n      dup2\n        /* \"#utility.yul\":3463:3476   */\n      iszero\n        /* \"#utility.yul\":3456:3477   */\n      iszero\n        /* \"#utility.yul\":3445:3477   */\n      swap1\n      pop\n        /* \"#utility.yul\":3393:3483   */\n      swap2\n      swap1\n      pop\n      jump\t// out\n        /* \"#utility.yul\":3489:3605   */\n    tag_50:\n        /* \"#utility.yul\":3559:3580   */\n      tag_101\n        /* \"#utility.yul\":3574:3579   */\n      dup2\n        /* \"#utility.yul\":3559:3580   */\n      tag_49\n      jump\t// in\n    tag_101:\n        /* \"#utility.yul\":3552:3557   */\n      dup2\n        /* \"#utility.yul\":3549:3581   */\n      eq\n        /* \"#utility.yul\":3539:3599   */\n      tag_102\n      jumpi\n        /* \"#utility.yul\":3595:3596   */\n      0x00\n        /* \"#utility.yul\":3592:3593   */\n      dup1\n        /* \"#utility.yul\":3585:3597   */\n      revert\n        /* \"#utility.yul\":3539:3599   */\n    tag_102:\n        /* \"#utility.yul\":3489:3605   */\n      pop\n      jump\t// out\n        /* \"#utility.yul\":3611:3748   */\n    tag_51:\n        /* \"#utility.yul\":3665:3670   */\n      0x00\n        /* \"#utility.yul\":3696:3702   */\n      dup2\n        /* \"#utility.yul\":3690:3703   */\n      mload\n        /* \"#utility.yul\":3681:3703   */\n      swap1\n      pop\n        /* \"#utility.yul\":3712:3742   */\n      tag_104\n        /* \"#utility.yul\":3736:3741   */\n      dup2\n        /* \"#utility.yul\":3712:3742   */\n      tag_50\n      jump\t// in\n    tag_104:\n        /* \"#utility.yul\":3611:3748   */\n      swap3\n      swap2\n      pop\n      pop\n      jump\t// out\n        /* \"#utility.yul\":3754:4099   */\n    tag_27:\n        /* \"#utility.yul\":3821:3827   */\n      0x00\n        /* \"#utility.yul\":3870:3872   */\n      0x20\n        /* \"#utility.yul\":3858:3867   */\n      dup3\n        /* \"#utility.yul\":3849:3856   */\n      dup5\n        /* \"#utility.yul\":3845:3868   */\n      sub\n        /* \"#utility.yul\":3841:3873   */\n      slt\n        /* \"#utility.yul\":3838:3957   */\n      iszero\n      tag_106\n      jumpi\n        /* \"#utility.yul\":3876:3955   */\n      tag_107\n      tag_37\n      jump\t// in\n    tag_107:\n        /* \"#utility.yul\":3838:3957   */\n    tag_106:\n        /* \"#utility.yul\":3996:3997   */\n      0x00\n        /* \"#utility.yul\":4021:4082   */\n      tag_108\n        /* \"#utility.yul\":4074:4081   */\n      dup5\n        /* \"#utility.yul\":4065:4071   */\n      dup3\n        /* \"#utility.yul\":4054:4063   */\n      dup6\n        /* \"#utility.yul\":4050:4072   */\n      add\n        /* \"#utility.yul\":4021:4082   */\n      tag_51\n      jump\t// in\n    tag_108:\n        /* \"#utility.yul\":4011:4082   */\n      swap2\n      pop\n        /* \"#utility.yul\":3967:4092   */\n      pop\n        /* \"#utility.yul\":3754:4099   */\n      swap3\n      swap2\n      pop\n      pop\n      jump\t// out\n        /* \"#utility.yul\":4105:4274   */\n    tag_52:\n        /* \"#utility.yul\":4189:4200   */\n      0x00\n        /* \"#utility.yul\":4223:4229   */\n      dup3\n        /* \"#utility.yul\":4218:4221   */\n      dup3\n        /* \"#utility.yul\":4211:4230   */\n      mstore\n        /* \"#utility.yul\":4263:4267   */\n      0x20\n        /* \"#utility.yul\":4258:4261   */\n      dup3\n        /* \"#utility.yul\":4254:4268   */\n      add\n        /* \"#utility.yul\":4239:4268   */\n      swap1\n      pop\n        /* \"#utility.yul\":4105:4274   */\n      swap3\n      swap2\n      pop\n      pop\n      jump\t// out\n        /* \"#utility.yul\":4280:4445   */\n    tag_53:\n        /* \"#utility.yul\":4420:4437   */\n      0x7472616e73666572206572726f72210000000000000000000000000000000000\n        /* \"#utility.yul\":4416:4417   */\n      0x00\n        /* \"#utility.yul\":4408:4414   */\n      dup3\n        /* \"#utility.yul\":4404:4418   */\n      add\n        /* \"#utility.yul\":4397:4438   */\n      mstore\n        /* \"#utility.yul\":4280:4445   */\n      pop\n      jump\t// out\n        /* \"#utility.yul\":4451:4817   */\n    tag_54:\n        /* \"#utility.yul\":4593:4596   */\n      0x00\n        /* \"#utility.yul\":4614:4681   */\n      tag_112\n        /* \"#utility.yul\":4678:4680   */\n      0x0f\n        /* \"#utility.yul\":4673:4676   */\n      dup4\n        /* \"#utility.yul\":4614:4681   */\n      tag_52\n      jump\t// in\n    tag_112:\n        /* \"#utility.yul\":4607:4681   */\n      swap2\n      pop\n        /* \"#utility.yul\":4690:4783   */\n      tag_113\n        /* \"#utility.yul\":4779:4782   */\n      dup3\n        /* \"#utility.yul\":4690:4783   */\n      tag_53\n      jump\t// in\n    tag_113:\n        /* \"#utility.yul\":4808:4810   */\n      0x20\n        /* \"#utility.yul\":4803:4806   */\n      dup3\n        /* \"#utility.yul\":4799:4811   */\n      add\n        /* \"#utility.yul\":4792:4811   */\n      swap1\n      pop\n        /* \"#utility.yul\":4451:4817   */\n      swap2\n      swap1\n      pop\n      jump\t// out\n        /* \"#utility.yul\":4823:5242   */\n    tag_30:\n        /* \"#utility.yul\":4989:4993   */\n      0x00\n        /* \"#utility.yul\":5027:5029   */\n      0x20\n        /* \"#utility.yul\":5016:5025   */\n      dup3\n        /* \"#utility.yul\":5012:5030   */\n      add\n        /* \"#utility.yul\":5004:5030   */\n      swap1\n      pop\n        /* \"#utility.yul\":5076:5085   */\n      dup2\n        /* \"#utility.yul\":5070:5074   */\n      dup2\n        /* \"#utility.yul\":5066:5086   */\n      sub\n        /* \"#utility.yul\":5062:5063   */\n      0x00\n        /* \"#utility.yul\":5051:5060   */\n      dup4\n        /* \"#utility.yul\":5047:5064   */\n      add\n        /* \"#utility.yul\":5040:5087   */\n      mstore\n        /* \"#utility.yul\":5104:5235   */\n      tag_115\n        /* \"#utility.yul\":5230:5234   */\n      dup2\n        /* \"#utility.yul\":5104:5235   */\n      tag_54\n      jump\t// in\n    tag_115:\n        /* \"#utility.yul\":5096:5235   */\n      swap1\n      pop\n        /* \"#utility.yul\":4823:5242   */\n      swap2\n      swap1\n      pop\n      jump\t// out\n        /* \"#utility.yul\":5248:5439   */\n    tag_32:\n        /* \"#utility.yul\":5288:5291   */\n      0x00\n        /* \"#utility.yul\":5307:5327   */\n      tag_117\n        /* \"#utility.yul\":5325:5326   */\n      dup3\n        /* \"#utility.yul\":5307:5327   */\n      tag_39\n      jump\t// in\n    tag_117:\n        /* \"#utility.yul\":5302:5327   */\n      swap2\n      pop\n        /* \"#utility.yul\":5341:5361   */\n      tag_118\n        /* \"#utility.yul\":5359:5360   */\n      dup4\n        /* \"#utility.yul\":5341:5361   */\n      tag_39\n      jump\t// in\n    tag_118:\n        /* \"#utility.yul\":5336:5361   */\n      swap3\n      pop\n        /* \"#utility.yul\":5384:5385   */\n      dup3\n        /* \"#utility.yul\":5381:5382   */\n      dup3\n        /* \"#utility.yul\":5377:5386   */\n      add\n        /* \"#utility.yul\":5370:5386   */\n      swap1\n      pop\n        /* \"#utility.yul\":5405:5408   */\n      dup1\n        /* \"#utility.yul\":5402:5403   */\n      dup3\n        /* \"#utility.yul\":5399:5409   */\n      gt\n        /* \"#utility.yul\":5396:5432   */\n      iszero\n      tag_119\n      jumpi\n        /* \"#utility.yul\":5412:5430   */\n      tag_120\n      tag_47\n      jump\t// in\n    tag_120:\n        /* \"#utility.yul\":5396:5432   */\n    tag_119:\n        /* \"#utility.yul\":5248:5439   */\n      swap3\n      swap2\n      pop\n      pop\n      jump\t// out\n        /* \"#utility.yul\":5445:5625   */\n    tag_55:\n        /* \"#utility.yul\":5493:5570   */\n      0x4e487b7100000000000000000000000000000000000000000000000000000000\n        /* \"#utility.yul\":5490:5491   */\n      0x00\n        /* \"#utility.yul\":5483:5571   */\n      mstore\n        /* \"#utility.yul\":5590:5594   */\n      0x12\n        /* \"#utility.yul\":5587:5588   */\n      0x04\n        /* \"#utility.yul\":5580:5595   */\n      mstore\n        /* \"#utility.yul\":5614:5618   */\n      0x24\n        /* \"#utility.yul\":5611:5612   */\n      0x00\n        /* \"#utility.yul\":5604:5619   */\n      revert\n        /* \"#utility.yul\":5631:5816   */\n    tag_35:\n        /* \"#utility.yul\":5671:5672   */\n      0x00\n        /* \"#utility.yul\":5688:5708   */\n      tag_123\n        /* \"#utility.yul\":5706:5707   */\n      dup3\n        /* \"#utility.yul\":5688:5708   */\n      tag_39\n      jump\t// in\n    tag_123:\n        /* \"#utility.yul\":5683:5708   */\n      swap2\n      pop\n        /* \"#utility.yul\":5722:5742   */\n      tag_124\n        /* \"#utility.yul\":5740:5741   */\n      dup4\n        /* \"#utility.yul\":5722:5742   */\n      tag_39\n      jump\t// in\n    tag_124:\n        /* \"#utility.yul\":5717:5742   */\n      swap3\n      pop\n        /* \"#utility.yul\":5761:5762   */\n      dup3\n        /* \"#utility.yul\":5751:5786   */\n      tag_125\n      jumpi\n        /* \"#utility.yul\":5766:5784   */\n      tag_126\n      tag_55\n      jump\t// in\n    tag_126:\n        /* \"#utility.yul\":5751:5786   */\n    tag_125:\n        /* \"#utility.yul\":5808:5809   */\n      dup3\n        /* \"#utility.yul\":5805:5806   */\n      dup3\n        /* \"#utility.yul\":5801:5810   */\n      div\n        /* \"#utility.yul\":5796:5810   */\n      swap1\n      pop\n        /* \"#utility.yul\":5631:5816   */\n      swap3\n      swap2\n      pop\n      pop\n      jump\t// out\n\n    auxdata: 0xa2646970667358221220d08e7b29c21941d2cca3f873fa5f545dc7dbd1c0d89227cd7a21f9b715b88f4764736f6c634300081a0033\n}\n",
				"bytecode": {
					"linkReferences": {},
					"object": "60a060405234801561000f575f80fd5b506040516106cb3803806106cb833981810160405281019061003191906100c9565b8073ffffffffffffffffffffffffffffffffffffffff1660808173ffffffffffffffffffffffffffffffffffffffff1681525050506100f4565b5f80fd5b5f73ffffffffffffffffffffffffffffffffffffffff82169050919050565b5f6100988261006f565b9050919050565b6100a88161008e565b81146100b2575f80fd5b50565b5f815190506100c38161009f565b92915050565b5f602082840312156100de576100dd61006b565b5b5f6100eb848285016100b5565b91505092915050565b6080516105c061010b5f395f60c501526105c05ff3fe608060405234801561000f575f80fd5b506004361061003f575f3560e01c8063b6b55f2514610043578063c9116b691461005f578063cb13cddb1461007d575b5f80fd5b61005d60048036038101906100589190610298565b6100ad565b005b6100676101f4565b60405161007491906102d2565b60405180910390f35b61009760048036038101906100929190610345565b61024d565b6040516100a491906102d2565b60405180910390f35b670de0b6b3a7640000816100c1919061039d565b90507f000000000000000000000000000000000000000000000000000000000000000073ffffffffffffffffffffffffffffffffffffffff166323b872dd3330846040518463ffffffff1660e01b8152600401610120939291906103ed565b6020604051808303815f875af115801561013c573d5f803e3d5ffd5b505050506040513d601f19601f820116820180604052508101906101609190610457565b61019f576040517f08c379a0000000000000000000000000000000000000000000000000000000008152600401610196906104dc565b60405180910390fd5b805f803373ffffffffffffffffffffffffffffffffffffffff1673ffffffffffffffffffffffffffffffffffffffff1681526020019081526020015f205f8282546101ea91906104fa565b9250508190555050565b5f805f3373ffffffffffffffffffffffffffffffffffffffff1673ffffffffffffffffffffffffffffffffffffffff1681526020019081526020015f20549050670de0b6b3a764000081610248919061055a565b905090565b5f602052805f5260405f205f915090505481565b5f80fd5b5f819050919050565b61027781610265565b8114610281575f80fd5b50565b5f813590506102928161026e565b92915050565b5f602082840312156102ad576102ac610261565b5b5f6102ba84828501610284565b91505092915050565b6102cc81610265565b82525050565b5f6020820190506102e55f8301846102c3565b92915050565b5f73ffffffffffffffffffffffffffffffffffffffff82169050919050565b5f610314826102eb565b9050919050565b6103248161030a565b811461032e575f80fd5b50565b5f8135905061033f8161031b565b92915050565b5f6020828403121561035a57610359610261565b5b5f61036784828501610331565b91505092915050565b7f4e487b71000000000000000000000000000000000000000000000000000000005f52601160045260245ffd5b5f6103a782610265565b91506103b283610265565b92508282026103c081610265565b915082820484148315176103d7576103d6610370565b5b5092915050565b6103e78161030a565b82525050565b5f6060820190506104005f8301866103de565b61040d60208301856103de565b61041a60408301846102c3565b949350505050565b5f8115159050919050565b61043681610422565b8114610440575f80fd5b50565b5f815190506104518161042d565b92915050565b5f6020828403121561046c5761046b610261565b5b5f61047984828501610443565b91505092915050565b5f82825260208201905092915050565b7f7472616e73666572206572726f722100000000000000000000000000000000005f82015250565b5f6104c6600f83610482565b91506104d182610492565b602082019050919050565b5f6020820190508181035f8301526104f3816104ba565b9050919050565b5f61050482610265565b915061050f83610265565b925082820190508082111561052757610526610370565b5b92915050565b7f4e487b71000000000000000000000000000000000000000000000000000000005f52601260045260245ffd5b5f61056482610265565b915061056f83610265565b92508261057f5761057e61052d565b5b82820490509291505056fea2646970667358221220d08e7b29c21941d2cca3f873fa5f545dc7dbd1c0d89227cd7a21f9b715b88f4764736f6c634300081a0033",
					"opcodes": "PUSH1 0xA0 PUSH1 0x40 MSTORE CALLVALUE DUP1 ISZERO PUSH2 0xF JUMPI PUSH0 DUP1 REVERT JUMPDEST POP PUSH1 0x40 MLOAD PUSH2 0x6CB CODESIZE SUB DUP1 PUSH2 0x6CB DUP4 CODECOPY DUP2 DUP2 ADD PUSH1 0x40 MSTORE DUP2 ADD SWAP1 PUSH2 0x31 SWAP2 SWAP1 PUSH2 0xC9 JUMP JUMPDEST DUP1 PUSH20 0xFFFFFFFFFFFFFFFFFFFFFFFFFFFFFFFFFFFFFFFF AND PUSH1 0x80 DUP2 PUSH20 0xFFFFFFFFFFFFFFFFFFFFFFFFFFFFFFFFFFFFFFFF AND DUP2 MSTORE POP POP POP PUSH2 0xF4 JUMP JUMPDEST PUSH0 DUP1 REVERT JUMPDEST PUSH0 PUSH20 0xFFFFFFFFFFFFFFFFFFFFFFFFFFFFFFFFFFFFFFFF DUP3 AND SWAP1 POP SWAP2 SWAP1 POP JUMP JUMPDEST PUSH0 PUSH2 0x98 DUP3 PUSH2 0x6F JUMP JUMPDEST SWAP1 POP SWAP2 SWAP1 POP JUMP JUMPDEST PUSH2 0xA8 DUP2 PUSH2 0x8E JUMP JUMPDEST DUP2 EQ PUSH2 0xB2 JUMPI PUSH0 DUP1 REVERT JUMPDEST POP JUMP JUMPDEST PUSH0 DUP2 MLOAD SWAP1 POP PUSH2 0xC3 DUP2 PUSH2 0x9F JUMP JUMPDEST SWAP3 SWAP2 POP POP JUMP JUMPDEST PUSH0 PUSH1 0x20 DUP3 DUP5 SUB SLT ISZERO PUSH2 0xDE JUMPI PUSH2 0xDD PUSH2 0x6B JUMP JUMPDEST JUMPDEST PUSH0 PUSH2 0xEB DUP5 DUP3 DUP6 ADD PUSH2 0xB5 JUMP JUMPDEST SWAP2 POP POP SWAP3 SWAP2 POP POP JUMP JUMPDEST PUSH1 0x80 MLOAD PUSH2 0x5C0 PUSH2 0x10B PUSH0 CODECOPY PUSH0 PUSH1 0xC5 ADD MSTORE PUSH2 0x5C0 PUSH0 RETURN INVALID PUSH1 0x80 PUSH1 0x40 MSTORE CALLVALUE DUP1 ISZERO PUSH2 0xF JUMPI PUSH0 DUP1 REVERT JUMPDEST POP PUSH1 0x4 CALLDATASIZE LT PUSH2 0x3F JUMPI PUSH0 CALLDATALOAD PUSH1 0xE0 SHR DUP1 PUSH4 0xB6B55F25 EQ PUSH2 0x43 JUMPI DUP1 PUSH4 0xC9116B69 EQ PUSH2 0x5F JUMPI DUP1 PUSH4 0xCB13CDDB EQ PUSH2 0x7D JUMPI JUMPDEST PUSH0 DUP1 REVERT JUMPDEST PUSH2 0x5D PUSH1 0x4 DUP1 CALLDATASIZE SUB DUP2 ADD SWAP1 PUSH2 0x58 SWAP2 SWAP1 PUSH2 0x298 JUMP JUMPDEST PUSH2 0xAD JUMP JUMPDEST STOP JUMPDEST PUSH2 0x67 PUSH2 0x1F4 JUMP JUMPDEST PUSH1 0x40 MLOAD PUSH2 0x74 SWAP2 SWAP1 PUSH2 0x2D2 JUMP JUMPDEST PUSH1 0x40 MLOAD DUP1 SWAP2 SUB SWAP1 RETURN JUMPDEST PUSH2 0x97 PUSH1 0x4 DUP1 CALLDATASIZE SUB DUP2 ADD SWAP1 PUSH2 0x92 SWAP2 SWAP1 PUSH2 0x345 JUMP JUMPDEST PUSH2 0x24D JUMP JUMPDEST PUSH1 0x40 MLOAD PUSH2 0xA4 SWAP2 SWAP1 PUSH2 0x2D2 JUMP JUMPDEST PUSH1 0x40 MLOAD DUP1 SWAP2 SUB SWAP1 RETURN JUMPDEST PUSH8 0xDE0B6B3A7640000 DUP2 PUSH2 0xC1 SWAP2 SWAP1 PUSH2 0x39D JUMP JUMPDEST SWAP1 POP PUSH32 0x0 PUSH20 0xFFFFFFFFFFFFFFFFFFFFFFFFFFFFFFFFFFFFFFFF AND PUSH4 0x23B872DD CALLER ADDRESS DUP5 PUSH1 0x40 MLOAD DUP5 PUSH4 0xFFFFFFFF AND PUSH1 0xE0 SHL DUP2 MSTORE PUSH1 0x4 ADD PUSH2 0x120 SWAP4 SWAP3 SWAP2 SWAP1 PUSH2 0x3ED JUMP JUMPDEST PUSH1 0x20 PUSH1 0x40 MLOAD DUP1 DUP4 SUB DUP2 PUSH0 DUP8 GAS CALL ISZERO DUP1 ISZERO PUSH2 0x13C JUMPI RETURNDATASIZE PUSH0 DUP1 RETURNDATACOPY RETURNDATASIZE PUSH0 REVERT JUMPDEST POP POP POP POP PUSH1 0x40 MLOAD RETURNDATASIZE PUSH1 0x1F NOT PUSH1 0x1F DUP3 ADD AND DUP3 ADD DUP1 PUSH1 0x40 MSTORE POP DUP2 ADD SWAP1 PUSH2 0x160 SWAP2 SWAP1 PUSH2 0x457 JUMP JUMPDEST PUSH2 0x19F JUMPI PUSH1 0x40 MLOAD PUSH32 0x8C379A000000000000000000000000000000000000000000000000000000000 DUP2 MSTORE PUSH1 0x4 ADD PUSH2 0x196 SWAP1 PUSH2 0x4DC JUMP JUMPDEST PUSH1 0x40 MLOAD DUP1 SWAP2 SUB SWAP1 REVERT JUMPDEST DUP1 PUSH0 DUP1 CALLER PUSH20 0xFFFFFFFFFFFFFFFFFFFFFFFFFFFFFFFFFFFFFFFF AND PUSH20 0xFFFFFFFFFFFFFFFFFFFFFFFFFFFFFFFFFFFFFFFF AND DUP2 MSTORE PUSH1 0x20 ADD SWAP1 DUP2 MSTORE PUSH1 0x20 ADD PUSH0 KECCAK256 PUSH0 DUP3 DUP3 SLOAD PUSH2 0x1EA SWAP2 SWAP1 PUSH2 0x4FA JUMP JUMPDEST SWAP3 POP POP DUP2 SWAP1 SSTORE POP POP JUMP JUMPDEST PUSH0 DUP1 PUSH0 CALLER PUSH20 0xFFFFFFFFFFFFFFFFFFFFFFFFFFFFFFFFFFFFFFFF AND PUSH20 0xFFFFFFFFFFFFFFFFFFFFFFFFFFFFFFFFFFFFFFFF AND DUP2 MSTORE PUSH1 0x20 ADD SWAP1 DUP2 MSTORE PUSH1 0x20 ADD PUSH0 KECCAK256 SLOAD SWAP1 POP PUSH8 0xDE0B6B3A7640000 DUP2 PUSH2 0x248 SWAP2 SWAP1 PUSH2 0x55A JUMP JUMPDEST SWAP1 POP SWAP1 JUMP JUMPDEST PUSH0 PUSH1 0x20 MSTORE DUP1 PUSH0 MSTORE PUSH1 0x40 PUSH0 KECCAK256 PUSH0 SWAP2 POP SWAP1 POP SLOAD DUP2 JUMP JUMPDEST PUSH0 DUP1 REVERT JUMPDEST PUSH0 DUP2 SWAP1 POP SWAP2 SWAP1 POP JUMP JUMPDEST PUSH2 0x277 DUP2 PUSH2 0x265 JUMP JUMPDEST DUP2 EQ PUSH2 0x281 JUMPI PUSH0 DUP1 REVERT JUMPDEST POP JUMP JUMPDEST PUSH0 DUP2 CALLDATALOAD SWAP1 POP PUSH2 0x292 DUP2 PUSH2 0x26E JUMP JUMPDEST SWAP3 SWAP2 POP POP JUMP JUMPDEST PUSH0 PUSH1 0x20 DUP3 DUP5 SUB SLT ISZERO PUSH2 0x2AD JUMPI PUSH2 0x2AC PUSH2 0x261 JUMP JUMPDEST JUMPDEST PUSH0 PUSH2 0x2BA DUP5 DUP3 DUP6 ADD PUSH2 0x284 JUMP JUMPDEST SWAP2 POP POP SWAP3 SWAP2 POP POP JUMP JUMPDEST PUSH2 0x2CC DUP2 PUSH2 0x265 JUMP JUMPDEST DUP3 MSTORE POP POP JUMP JUMPDEST PUSH0 PUSH1 0x20 DUP3 ADD SWAP1 POP PUSH2 0x2E5 PUSH0 DUP4 ADD DUP5 PUSH2 0x2C3 JUMP JUMPDEST SWAP3 SWAP2 POP POP JUMP JUMPDEST PUSH0 PUSH20 0xFFFFFFFFFFFFFFFFFFFFFFFFFFFFFFFFFFFFFFFF DUP3 AND SWAP1 POP SWAP2 SWAP1 POP JUMP JUMPDEST PUSH0 PUSH2 0x314 DUP3 PUSH2 0x2EB JUMP JUMPDEST SWAP1 POP SWAP2 SWAP1 POP JUMP JUMPDEST PUSH2 0x324 DUP2 PUSH2 0x30A JUMP JUMPDEST DUP2 EQ PUSH2 0x32E JUMPI PUSH0 DUP1 REVERT JUMPDEST POP JUMP JUMPDEST PUSH0 DUP2 CALLDATALOAD SWAP1 POP PUSH2 0x33F DUP2 PUSH2 0x31B JUMP JUMPDEST SWAP3 SWAP2 POP POP JUMP JUMPDEST PUSH0 PUSH1 0x20 DUP3 DUP5 SUB SLT ISZERO PUSH2 0x35A JUMPI PUSH2 0x359 PUSH2 0x261 JUMP JUMPDEST JUMPDEST PUSH0 PUSH2 0x367 DUP5 DUP3 DUP6 ADD PUSH2 0x331 JUMP JUMPDEST SWAP2 POP POP SWAP3 SWAP2 POP POP JUMP JUMPDEST PUSH32 0x4E487B7100000000000000000000000000000000000000000000000000000000 PUSH0 MSTORE PUSH1 0x11 PUSH1 0x4 MSTORE PUSH1 0x24 PUSH0 REVERT JUMPDEST PUSH0 PUSH2 0x3A7 DUP3 PUSH2 0x265 JUMP JUMPDEST SWAP2 POP PUSH2 0x3B2 DUP4 PUSH2 0x265 JUMP JUMPDEST SWAP3 POP DUP3 DUP3 MUL PUSH2 0x3C0 DUP2 PUSH2 0x265 JUMP JUMPDEST SWAP2 POP DUP3 DUP3 DIV DUP5 EQ DUP4 ISZERO OR PUSH2 0x3D7 JUMPI PUSH2 0x3D6 PUSH2 0x370 JUMP JUMPDEST JUMPDEST POP SWAP3 SWAP2 POP POP JUMP JUMPDEST PUSH2 0x3E7 DUP2 PUSH2 0x30A JUMP JUMPDEST DUP3 MSTORE POP POP JUMP JUMPDEST PUSH0 PUSH1 0x60 DUP3 ADD SWAP1 POP PUSH2 0x400 PUSH0 DUP4 ADD DUP7 PUSH2 0x3DE JUMP JUMPDEST PUSH2 0x40D PUSH1 0x20 DUP4 ADD DUP6 PUSH2 0x3DE JUMP JUMPDEST PUSH2 0x41A PUSH1 0x40 DUP4 ADD DUP5 PUSH2 0x2C3 JUMP JUMPDEST SWAP5 SWAP4 POP POP POP POP JUMP JUMPDEST PUSH0 DUP2 ISZERO ISZERO SWAP1 POP SWAP2 SWAP1 POP JUMP JUMPDEST PUSH2 0x436 DUP2 PUSH2 0x422 JUMP JUMPDEST DUP2 EQ PUSH2 0x440 JUMPI PUSH0 DUP1 REVERT JUMPDEST POP JUMP JUMPDEST PUSH0 DUP2 MLOAD SWAP1 POP PUSH2 0x451 DUP2 PUSH2 0x42D JUMP JUMPDEST SWAP3 SWAP2 POP POP JUMP JUMPDEST PUSH0 PUSH1 0x20 DUP3 DUP5 SUB SLT ISZERO PUSH2 0x46C JUMPI PUSH2 0x46B PUSH2 0x261 JUMP JUMPDEST JUMPDEST PUSH0 PUSH2 0x479 DUP5 DUP3 DUP6 ADD PUSH2 0x443 JUMP JUMPDEST SWAP2 POP POP SWAP3 SWAP2 POP POP JUMP JUMPDEST PUSH0 DUP3 DUP3 MSTORE PUSH1 0x20 DUP3 ADD SWAP1 POP SWAP3 SWAP2 POP POP JUMP JUMPDEST PUSH32 0x7472616E73666572206572726F72210000000000000000000000000000000000 PUSH0 DUP3 ADD MSTORE POP JUMP JUMPDEST PUSH0 PUSH2 0x4C6 PUSH1 0xF DUP4 PUSH2 0x482 JUMP JUMPDEST SWAP2 POP PUSH2 0x4D1 DUP3 PUSH2 0x492 JUMP JUMPDEST PUSH1 0x20 DUP3 ADD SWAP1 POP SWAP2 SWAP1 POP JUMP JUMPDEST PUSH0 PUSH1 0x20 DUP3 ADD SWAP1 POP DUP2 DUP2 SUB PUSH0 DUP4 ADD MSTORE PUSH2 0x4F3 DUP2 PUSH2 0x4BA JUMP JUMPDEST SWAP1 POP SWAP2 SWAP1 POP JUMP JUMPDEST PUSH0 PUSH2 0x504 DUP3 PUSH2 0x265 JUMP JUMPDEST SWAP2 POP PUSH2 0x50F DUP4 PUSH2 0x265 JUMP JUMPDEST SWAP3 POP DUP3 DUP3 ADD SWAP1 POP DUP1 DUP3 GT ISZERO PUSH2 0x527 JUMPI PUSH2 0x526 PUSH2 0x370 JUMP JUMPDEST JUMPDEST SWAP3 SWAP2 POP POP JUMP JUMPDEST PUSH32 0x4E487B7100000000000000000000000000000000000000000000000000000000 PUSH0 MSTORE PUSH1 0x12 PUSH1 0x4 MSTORE PUSH1 0x24 PUSH0 REVERT JUMPDEST PUSH0 PUSH2 0x564 DUP3 PUSH2 0x265 JUMP JUMPDEST SWAP2 POP PUSH2 0x56F DUP4 PUSH2 0x265 JUMP JUMPDEST SWAP3 POP DUP3 PUSH2 0x57F JUMPI PUSH2 0x57E PUSH2 0x52D JUMP JUMPDEST JUMPDEST DUP3 DUP3 DIV SWAP1 POP SWAP3 SWAP2 POP POP JUMP INVALID LOG2 PUSH5 0x6970667358 0x22 SLT KECCAK256 0xD0 DUP15 PUSH28 0x29C21941D2CCA3F873FA5F545DC7DBD1C0D89227CD7A21F9B715B88F SELFBALANCE PUSH5 0x736F6C6343 STOP ADDMOD BYTE STOP CALLER "
				},
				"gasEstimates": {
					"creation": {
						"codeDepositCost": "294400",
						"executionCost": "infinite",
						"totalCost": "infinite"
					},
					"external": {
						"deposit(uint256)": "infinite",
						"deposited(address)": "2823",
						"myBalance()": "infinite"
					}
				},
				"methodIdentifiers": {
					"deposit(uint256)": "b6b55f25",
					"deposited(address)": "cb13cddb",
					"myBalance()": "c9116b69"
				}
			},
			"storageLayout": {
				"storage": [
					{
						"astId": 88,
						"contract": "contracts/Bank.sol:Bank",
						"label": "deposited",
						"offset": 0,
						"slot": "0",
						"type": "t_mapping(t_address,t_uint256)"
					}
				],
				"types": {
					"t_address": {
						"encoding": "inplace",
						"label": "address",
						"numberOfBytes": "20"
					},
					"t_mapping(t_address,t_uint256)": {
						"encoding": "mapping",
						"key": "t_address",
						"label": "mapping(address => uint256)",
						"numberOfBytes": "32",
						"value": "t_uint256"
					},
					"t_uint256": {
						"encoding": "inplace",
						"label": "uint256",
						"numberOfBytes": "32"
					}
				}
			},
			"userdoc": {
				"kind": "user",
				"methods": {},
				"version": 1
			}
		}
	}
}