{
	"contracts/Bank.sol": {
		"Bank": {
			"abi": [
				{
					"inputs": [
						{
							"internalType": "address",
							"name": "_token",
							"type": "address"
						}
					],
					"stateMutability": "nonpayable",
					"type": "constructor"
				},
				{
					"inputs": [
						{
							"internalType": "address",
							"name": "token",
							"type": "address"
						}
					],
					"name": "SafeERC20FailedOperation",
					"type": "error"
				},
				{
					"inputs": [
						{
							"internalType": "uint256",
							"name": "amount",
							"type": "uint256"
						}
					],
					"name": "deposit",
					"outputs": [],
					"stateMutability": "nonpayable",
					"type": "function"
				},
				{
					"inputs": [
						{
							"internalType": "address",
							"name": "",
							"type": "address"
						}
					],
					"name": "deposited",
					"outputs": [
						{
							"internalType": "uint256",
							"name": "",
							"type": "uint256"
						}
					],
					"stateMutability": "view",
					"type": "function"
				},
				{
					"inputs": [],
					"name": "myBalance",
					"outputs": [
						{
							"internalType": "uint256",
							"name": "balance",
							"type": "uint256"
						}
					],
					"stateMutability": "view",
					"type": "function"
				},
				{
					"inputs": [
						{
							"internalType": "address",
							"name": "to",
							"type": "address"
						},
						{
							"internalType": "uint256",
							"name": "amount",
							"type": "uint256"
						}
					],
					"name": "transfer",
					"outputs": [],
					"stateMutability": "nonpayable",
					"type": "function"
				},
				{
					"inputs": [
						{
							"internalType": "uint256",
							"name": "amount",
							"type": "uint256"
						}
					],
					"name": "withdraw",
					"outputs": [],
					"stateMutability": "nonpayable",
					"type": "function"
				}
			],
			"devdoc": {
				"errors": {
					"SafeERC20FailedOperation(address)": [
						{
							"details": "An operation with an ERC-20 token failed."
						}
					]
				},
				"kind": "dev",
				"methods": {},
				"version": 1
			},
			"evm": {
				"assembly": "    /* \"contracts/Bank.sol\":181:2872  contract Bank{... */\n  mstore(0x40, 0xa0)\n    /* \"contracts/Bank.sol\":346:404  constructor(address _token){... */\n  callvalue\n  dup1\n  iszero\n  tag_1\n  jumpi\n  0x00\n  dup1\n  revert\ntag_1:\n  pop\n  mload(0x40)\n  sub(codesize, bytecodeSize)\n  dup1\n  bytecodeSize\n  dup4\n  codecopy\n  dup2\n  dup2\n  add\n  0x40\n  mstore\n  dup2\n  add\n  swap1\n  tag_2\n  swap2\n  swap1\n  tag_3\n  jump\t// in\ntag_2:\n    /* \"contracts/Bank.sol\":391:397  _token */\n  dup1\n    /* \"contracts/Bank.sol\":383:397  token = _token */\n  0xffffffffffffffffffffffffffffffffffffffff\n  and\n  0x80\n  dup2\n  0xffffffffffffffffffffffffffffffffffffffff\n  and\n  dup2\n  mstore\n  pop\n  pop\n    /* \"contracts/Bank.sol\":346:404  constructor(address _token){... */\n  pop\n    /* \"contracts/Bank.sol\":181:2872  contract Bank{... */\n  jump(tag_6)\n    /* \"#utility.yul\":88:205   */\ntag_8:\n    /* \"#utility.yul\":197:198   */\n  0x00\n    /* \"#utility.yul\":194:195   */\n  dup1\n    /* \"#utility.yul\":187:199   */\n  revert\n    /* \"#utility.yul\":334:460   */\ntag_10:\n    /* \"#utility.yul\":371:378   */\n  0x00\n    /* \"#utility.yul\":411:453   */\n  0xffffffffffffffffffffffffffffffffffffffff\n    /* \"#utility.yul\":404:409   */\n  dup3\n    /* \"#utility.yul\":400:454   */\n  and\n    /* \"#utility.yul\":389:454   */\n  swap1\n  pop\n    /* \"#utility.yul\":334:460   */\n  swap2\n  swap1\n  pop\n  jump\t// out\n    /* \"#utility.yul\":466:562   */\ntag_11:\n    /* \"#utility.yul\":503:510   */\n  0x00\n    /* \"#utility.yul\":532:556   */\n  tag_20\n    /* \"#utility.yul\":550:555   */\n  dup3\n    /* \"#utility.yul\":532:556   */\n  tag_10\n  jump\t// in\ntag_20:\n    /* \"#utility.yul\":521:556   */\n  swap1\n  pop\n    /* \"#utility.yul\":466:562   */\n  swap2\n  swap1\n  pop\n  jump\t// out\n    /* \"#utility.yul\":568:690   */\ntag_12:\n    /* \"#utility.yul\":641:665   */\n  tag_22\n    /* \"#utility.yul\":659:664   */\n  dup2\n    /* \"#utility.yul\":641:665   */\n  tag_11\n  jump\t// in\ntag_22:\n    /* \"#utility.yul\":634:639   */\n  dup2\n    /* \"#utility.yul\":631:666   */\n  eq\n    /* \"#utility.yul\":621:684   */\n  tag_23\n  jumpi\n    /* \"#utility.yul\":680:681   */\n  0x00\n    /* \"#utility.yul\":677:678   */\n  dup1\n    /* \"#utility.yul\":670:682   */\n  revert\n    /* \"#utility.yul\":621:684   */\ntag_23:\n    /* \"#utility.yul\":568:690   */\n  pop\n  jump\t// out\n    /* \"#utility.yul\":696:839   */\ntag_13:\n    /* \"#utility.yul\":753:758   */\n  0x00\n    /* \"#utility.yul\":784:790   */\n  dup2\n    /* \"#utility.yul\":778:791   */\n  mload\n    /* \"#utility.yul\":769:791   */\n  swap1\n  pop\n    /* \"#utility.yul\":800:833   */\n  tag_25\n    /* \"#utility.yul\":827:832   */\n  dup2\n    /* \"#utility.yul\":800:833   */\n  tag_12\n  jump\t// in\ntag_25:\n    /* \"#utility.yul\":696:839   */\n  swap3\n  swap2\n  pop\n  pop\n  jump\t// out\n    /* \"#utility.yul\":845:1196   */\ntag_3:\n    /* \"#utility.yul\":915:921   */\n  0x00\n    /* \"#utility.yul\":964:966   */\n  0x20\n    /* \"#utility.yul\":952:961   */\n  dup3\n    /* \"#utility.yul\":943:950   */\n  dup5\n    /* \"#utility.yul\":939:962   */\n  sub\n    /* \"#utility.yul\":935:967   */\n  slt\n    /* \"#utility.yul\":932:1051   */\n  iszero\n  tag_27\n  jumpi\n    /* \"#utility.yul\":970:1049   */\n  tag_28\n  tag_8\n  jump\t// in\ntag_28:\n    /* \"#utility.yul\":932:1051   */\ntag_27:\n    /* \"#utility.yul\":1090:1091   */\n  0x00\n    /* \"#utility.yul\":1115:1179   */\n  tag_29\n    /* \"#utility.yul\":1171:1178   */\n  dup5\n    /* \"#utility.yul\":1162:1168   */\n  dup3\n    /* \"#utility.yul\":1151:1160   */\n  dup6\n    /* \"#utility.yul\":1147:1169   */\n  add\n    /* \"#utility.yul\":1115:1179   */\n  tag_13\n  jump\t// in\ntag_29:\n    /* \"#utility.yul\":1105:1179   */\n  swap2\n  pop\n    /* \"#utility.yul\":1061:1189   */\n  pop\n    /* \"#utility.yul\":845:1196   */\n  swap3\n  swap2\n  pop\n  pop\n  jump\t// out\n    /* \"contracts/Bank.sol\":181:2872  contract Bank{... */\ntag_6:\n  mload(0x80)\n  codecopy(0x00, dataOffset(sub_0), dataSize(sub_0))\n  0x00\n  assignImmutable(\"0xc5fad44e3727a4ce457d020cb0c6daf6b7d8f8d9551f2fa0111b8c9f86d3fe43\")\n  return(0x00, dataSize(sub_0))\nstop\n\nsub_0: assembly {\n        /* \"contracts/Bank.sol\":181:2872  contract Bank{... */\n      mstore(0x40, 0x80)\n      callvalue\n      dup1\n      iszero\n      tag_1\n      jumpi\n      0x00\n      dup1\n      revert\n    tag_1:\n      pop\n      jumpi(tag_2, lt(calldatasize, 0x04))\n      shr(0xe0, calldataload(0x00))\n      dup1\n      0x2e1a7d4d\n      eq\n      tag_3\n      jumpi\n      dup1\n      0xa9059cbb\n      eq\n      tag_4\n      jumpi\n      dup1\n      0xb6b55f25\n      eq\n      tag_5\n      jumpi\n      dup1\n      0xc9116b69\n      eq\n      tag_6\n      jumpi\n      dup1\n      0xcb13cddb\n      eq\n      tag_7\n      jumpi\n    tag_2:\n      0x00\n      dup1\n      revert\n        /* \"contracts/Bank.sol\":2059:2544  function withdraw(uint amount) external requireBalance(amount){... */\n    tag_3:\n      tag_8\n      0x04\n      dup1\n      calldatasize\n      sub\n      dup2\n      add\n      swap1\n      tag_9\n      swap2\n      swap1\n      tag_10\n      jump\t// in\n    tag_9:\n      tag_11\n      jump\t// in\n    tag_8:\n      stop\n        /* \"contracts/Bank.sol\":2566:2867  function transfer(address to, uint amount) public requireBalance(amount) {... */\n    tag_4:\n      tag_12\n      0x04\n      dup1\n      calldatasize\n      sub\n      dup2\n      add\n      swap1\n      tag_13\n      swap2\n      swap1\n      tag_14\n      jump\t// in\n    tag_13:\n      tag_15\n      jump\t// in\n    tag_12:\n      stop\n        /* \"contracts/Bank.sol\":1138:1600  function deposit(uint amount) public {... */\n    tag_5:\n      tag_16\n      0x04\n      dup1\n      calldatasize\n      sub\n      dup2\n      add\n      swap1\n      tag_17\n      swap2\n      swap1\n      tag_10\n      jump\t// in\n    tag_17:\n      tag_18\n      jump\t// in\n    tag_16:\n      stop\n        /* \"contracts/Bank.sol\":825:1050  function myBalance() public view returns(uint balance){... */\n    tag_6:\n      tag_19\n      tag_20\n      jump\t// in\n    tag_19:\n      mload(0x40)\n      tag_21\n      swap2\n      swap1\n      tag_22\n      jump\t// in\n    tag_21:\n      mload(0x40)\n      dup1\n      swap2\n      sub\n      swap1\n      return\n        /* \"contracts/Bank.sol\":233:274  mapping(address => uint) public deposited */\n    tag_7:\n      tag_23\n      0x04\n      dup1\n      calldatasize\n      sub\n      dup2\n      add\n      swap1\n      tag_24\n      swap2\n      swap1\n      tag_25\n      jump\t// in\n    tag_24:\n      tag_26\n      jump\t// in\n    tag_23:\n      mload(0x40)\n      tag_27\n      swap2\n      swap1\n      tag_22\n      jump\t// in\n    tag_27:\n      mload(0x40)\n      dup1\n      swap2\n      sub\n      swap1\n      return\n        /* \"contracts/Bank.sol\":2059:2544  function withdraw(uint amount) external requireBalance(amount){... */\n    tag_11:\n        /* \"contracts/Bank.sol\":2114:2120  amount */\n      dup1\n        /* \"contracts/Bank.sol\":504:512  10 ** 18 */\n      0x0de0b6b3a7640000\n        /* \"contracts/Bank.sol\":495:501  amount */\n      dup2\n        /* \"contracts/Bank.sol\":495:512  amount * 10 ** 18 */\n      tag_29\n      swap2\n      swap1\n      tag_30\n      jump\t// in\n    tag_29:\n        /* \"contracts/Bank.sol\":486:512  amount = amount * 10 ** 18 */\n      swap1\n      pop\n        /* \"contracts/Bank.sol\":522:534  uint balance */\n      0x00\n        /* \"contracts/Bank.sol\":537:546  deposited */\n      dup1\n        /* \"contracts/Bank.sol\":537:558  deposited[msg.sender] */\n      0x00\n        /* \"contracts/Bank.sol\":547:557  msg.sender */\n      caller\n        /* \"contracts/Bank.sol\":537:558  deposited[msg.sender] */\n      0xffffffffffffffffffffffffffffffffffffffff\n      and\n      0xffffffffffffffffffffffffffffffffffffffff\n      and\n      dup2\n      mstore\n      0x20\n      add\n      swap1\n      dup2\n      mstore\n      0x20\n      add\n      0x00\n      keccak256\n      sload\n        /* \"contracts/Bank.sol\":522:558  uint balance = deposited[msg.sender] */\n      swap1\n      pop\n        /* \"contracts/Bank.sol\":586:595  deposited */\n      0x00\n        /* \"contracts/Bank.sol\":586:607  deposited[msg.sender] */\n      dup1\n        /* \"contracts/Bank.sol\":596:606  msg.sender */\n      caller\n        /* \"contracts/Bank.sol\":586:607  deposited[msg.sender] */\n      0xffffffffffffffffffffffffffffffffffffffff\n      and\n      0xffffffffffffffffffffffffffffffffffffffff\n      and\n      dup2\n      mstore\n      0x20\n      add\n      swap1\n      dup2\n      mstore\n      0x20\n      add\n      0x00\n      keccak256\n      sload\n        /* \"contracts/Bank.sol\":576:582  amount */\n      dup3\n        /* \"contracts/Bank.sol\":576:607  amount <= deposited[msg.sender] */\n      gt\n      iszero\n        /* \"contracts/Bank.sol\":568:666  require(amount <= deposited[msg.sender], \"withdraw amount should not greater than deposit amount\") */\n      tag_31\n      jumpi\n      mload(0x40)\n      0x08c379a000000000000000000000000000000000000000000000000000000000\n      dup2\n      mstore\n      0x04\n      add\n      tag_32\n      swap1\n      tag_33\n      jump\t// in\n    tag_32:\n      mload(0x40)\n      dup1\n      swap2\n      sub\n      swap1\n      revert\n    tag_31:\n        /* \"contracts/Bank.sol\":2338:2346  10 ** 18 */\n      0x0de0b6b3a7640000\n        /* \"contracts/Bank.sol\":2329:2335  amount */\n      dup4\n        /* \"contracts/Bank.sol\":2329:2346  amount * 10 ** 18 */\n      tag_35\n      swap2\n      swap1\n      tag_30\n      jump\t// in\n    tag_35:\n        /* \"contracts/Bank.sol\":2320:2346  amount = amount * 10 ** 18 */\n      swap3\n      pop\n        /* \"contracts/Bank.sol\":2438:2495  SafeERC20.safeTransfer(IERC20(token), msg.sender, amount) */\n      tag_36\n        /* \"contracts/Bank.sol\":2468:2473  token */\n      immutable(\"0xc5fad44e3727a4ce457d020cb0c6daf6b7d8f8d9551f2fa0111b8c9f86d3fe43\")\n        /* \"contracts/Bank.sol\":2476:2486  msg.sender */\n      caller\n        /* \"contracts/Bank.sol\":2488:2494  amount */\n      dup6\n        /* \"contracts/Bank.sol\":2438:2460  SafeERC20.safeTransfer */\n      tag_37\n        /* \"contracts/Bank.sol\":2438:2495  SafeERC20.safeTransfer(IERC20(token), msg.sender, amount) */\n      jump\t// in\n    tag_36:\n        /* \"contracts/Bank.sol\":2531:2537  amount */\n      dup3\n        /* \"contracts/Bank.sol\":2506:2515  deposited */\n      0x00\n        /* \"contracts/Bank.sol\":2506:2527  deposited[msg.sender] */\n      dup1\n        /* \"contracts/Bank.sol\":2516:2526  msg.sender */\n      caller\n        /* \"contracts/Bank.sol\":2506:2527  deposited[msg.sender] */\n      0xffffffffffffffffffffffffffffffffffffffff\n      and\n      0xffffffffffffffffffffffffffffffffffffffff\n      and\n      dup2\n      mstore\n      0x20\n      add\n      swap1\n      dup2\n      mstore\n      0x20\n      add\n      0x00\n      keccak256\n      0x00\n        /* \"contracts/Bank.sol\":2506:2537  deposited[msg.sender] -= amount */\n      dup3\n      dup3\n      sload\n      tag_38\n      swap2\n      swap1\n      tag_39\n      jump\t// in\n    tag_38:\n      swap3\n      pop\n      pop\n      dup2\n      swap1\n      sstore\n      pop\n        /* \"contracts/Bank.sol\":476:739  {... */\n      pop\n        /* \"contracts/Bank.sol\":2059:2544  function withdraw(uint amount) external requireBalance(amount){... */\n      pop\n      pop\n      jump\t// out\n        /* \"contracts/Bank.sol\":2566:2867  function transfer(address to, uint amount) public requireBalance(amount) {... */\n    tag_15:\n        /* \"contracts/Bank.sol\":2631:2637  amount */\n      dup1\n        /* \"contracts/Bank.sol\":504:512  10 ** 18 */\n      0x0de0b6b3a7640000\n        /* \"contracts/Bank.sol\":495:501  amount */\n      dup2\n        /* \"contracts/Bank.sol\":495:512  amount * 10 ** 18 */\n      tag_41\n      swap2\n      swap1\n      tag_30\n      jump\t// in\n    tag_41:\n        /* \"contracts/Bank.sol\":486:512  amount = amount * 10 ** 18 */\n      swap1\n      pop\n        /* \"contracts/Bank.sol\":522:534  uint balance */\n      0x00\n        /* \"contracts/Bank.sol\":537:546  deposited */\n      dup1\n        /* \"contracts/Bank.sol\":537:558  deposited[msg.sender] */\n      0x00\n        /* \"contracts/Bank.sol\":547:557  msg.sender */\n      caller\n        /* \"contracts/Bank.sol\":537:558  deposited[msg.sender] */\n      0xffffffffffffffffffffffffffffffffffffffff\n      and\n      0xffffffffffffffffffffffffffffffffffffffff\n      and\n      dup2\n      mstore\n      0x20\n      add\n      swap1\n      dup2\n      mstore\n      0x20\n      add\n      0x00\n      keccak256\n      sload\n        /* \"contracts/Bank.sol\":522:558  uint balance = deposited[msg.sender] */\n      swap1\n      pop\n        /* \"contracts/Bank.sol\":586:595  deposited */\n      0x00\n        /* \"contracts/Bank.sol\":586:607  deposited[msg.sender] */\n      dup1\n        /* \"contracts/Bank.sol\":596:606  msg.sender */\n      caller\n        /* \"contracts/Bank.sol\":586:607  deposited[msg.sender] */\n      0xffffffffffffffffffffffffffffffffffffffff\n      and\n      0xffffffffffffffffffffffffffffffffffffffff\n      and\n      dup2\n      mstore\n      0x20\n      add\n      swap1\n      dup2\n      mstore\n      0x20\n      add\n      0x00\n      keccak256\n      sload\n        /* \"contracts/Bank.sol\":576:582  amount */\n      dup3\n        /* \"contracts/Bank.sol\":576:607  amount <= deposited[msg.sender] */\n      gt\n      iszero\n        /* \"contracts/Bank.sol\":568:666  require(amount <= deposited[msg.sender], \"withdraw amount should not greater than deposit amount\") */\n      tag_42\n      jumpi\n      mload(0x40)\n      0x08c379a000000000000000000000000000000000000000000000000000000000\n      dup2\n      mstore\n      0x04\n      add\n      tag_43\n      swap1\n      tag_33\n      jump\t// in\n    tag_43:\n      mload(0x40)\n      dup1\n      swap2\n      sub\n      swap1\n      revert\n    tag_42:\n        /* \"contracts/Bank.sol\":2667:2675  10 ** 18 */\n      0x0de0b6b3a7640000\n        /* \"contracts/Bank.sol\":2658:2664  amount */\n      dup4\n        /* \"contracts/Bank.sol\":2658:2675  amount * 10 ** 18 */\n      tag_45\n      swap2\n      swap1\n      tag_30\n      jump\t// in\n    tag_45:\n        /* \"contracts/Bank.sol\":2649:2675  amount = amount * 10 ** 18 */\n      swap3\n      pop\n        /* \"contracts/Bank.sol\":2821:2827  amount */\n      dup3\n        /* \"contracts/Bank.sol\":2796:2805  deposited */\n      0x00\n        /* \"contracts/Bank.sol\":2796:2817  deposited[msg.sender] */\n      dup1\n        /* \"contracts/Bank.sol\":2806:2816  msg.sender */\n      caller\n        /* \"contracts/Bank.sol\":2796:2817  deposited[msg.sender] */\n      0xffffffffffffffffffffffffffffffffffffffff\n      and\n      0xffffffffffffffffffffffffffffffffffffffff\n      and\n      dup2\n      mstore\n      0x20\n      add\n      swap1\n      dup2\n      mstore\n      0x20\n      add\n      0x00\n      keccak256\n      0x00\n        /* \"contracts/Bank.sol\":2796:2827  deposited[msg.sender] -= amount */\n      dup3\n      dup3\n      sload\n      tag_46\n      swap2\n      swap1\n      tag_39\n      jump\t// in\n    tag_46:\n      swap3\n      pop\n      pop\n      dup2\n      swap1\n      sstore\n      pop\n        /* \"contracts/Bank.sol\":2854:2860  amount */\n      dup3\n        /* \"contracts/Bank.sol\":2837:2846  deposited */\n      0x00\n        /* \"contracts/Bank.sol\":2837:2850  deposited[to] */\n      dup1\n        /* \"contracts/Bank.sol\":2847:2849  to */\n      dup7\n        /* \"contracts/Bank.sol\":2837:2850  deposited[to] */\n      0xffffffffffffffffffffffffffffffffffffffff\n      and\n      0xffffffffffffffffffffffffffffffffffffffff\n      and\n      dup2\n      mstore\n      0x20\n      add\n      swap1\n      dup2\n      mstore\n      0x20\n      add\n      0x00\n      keccak256\n      0x00\n        /* \"contracts/Bank.sol\":2837:2860  deposited[to] += amount */\n      dup3\n      dup3\n      sload\n      tag_47\n      swap2\n      swap1\n      tag_48\n      jump\t// in\n    tag_47:\n      swap3\n      pop\n      pop\n      dup2\n      swap1\n      sstore\n      pop\n        /* \"contracts/Bank.sol\":476:739  {... */\n      pop\n        /* \"contracts/Bank.sol\":2566:2867  function transfer(address to, uint amount) public requireBalance(amount) {... */\n      pop\n      pop\n      pop\n      jump\t// out\n        /* \"contracts/Bank.sol\":1138:1600  function deposit(uint amount) public {... */\n    tag_18:\n        /* \"contracts/Bank.sol\":1280:1288  10 ** 18 */\n      0x0de0b6b3a7640000\n        /* \"contracts/Bank.sol\":1271:1277  amount */\n      dup2\n        /* \"contracts/Bank.sol\":1271:1288  amount * 10 ** 18 */\n      tag_50\n      swap2\n      swap1\n      tag_30\n      jump\t// in\n    tag_50:\n        /* \"contracts/Bank.sol\":1262:1288  amount = amount * 10 ** 18 */\n      swap1\n      pop\n        /* \"contracts/Bank.sol\":1414:1419  token */\n      immutable(\"0xc5fad44e3727a4ce457d020cb0c6daf6b7d8f8d9551f2fa0111b8c9f86d3fe43\")\n        /* \"contracts/Bank.sol\":1407:1433  IERC20(token).transferFrom */\n      0xffffffffffffffffffffffffffffffffffffffff\n      and\n      0x23b872dd\n        /* \"contracts/Bank.sol\":1434:1444  msg.sender */\n      caller\n        /* \"contracts/Bank.sol\":1454:1458  this */\n      address\n        /* \"contracts/Bank.sol\":1461:1467  amount */\n      dup5\n        /* \"contracts/Bank.sol\":1407:1468  IERC20(token).transferFrom(msg.sender, address(this), amount) */\n      mload(0x40)\n      dup5\n      0xffffffff\n      and\n      0xe0\n      shl\n      dup2\n      mstore\n      0x04\n      add\n      tag_51\n      swap4\n      swap3\n      swap2\n      swap1\n      tag_52\n      jump\t// in\n    tag_51:\n      0x20\n      mload(0x40)\n      dup1\n      dup4\n      sub\n      dup2\n      0x00\n      dup8\n      gas\n      call\n      iszero\n      dup1\n      iszero\n      tag_54\n      jumpi\n      returndatasize\n      0x00\n      dup1\n      returndatacopy\n      revert(0x00, returndatasize)\n    tag_54:\n      pop\n      pop\n      pop\n      pop\n      mload(0x40)\n      returndatasize\n      not(0x1f)\n      0x1f\n      dup3\n      add\n      and\n      dup3\n      add\n      dup1\n      0x40\n      mstore\n      pop\n      dup2\n      add\n      swap1\n      tag_55\n      swap2\n      swap1\n      tag_56\n      jump\t// in\n    tag_55:\n        /* \"contracts/Bank.sol\":1399:1487  require(IERC20(token).transferFrom(msg.sender, address(this), amount), \"deposit error!\") */\n      tag_57\n      jumpi\n      mload(0x40)\n      0x08c379a000000000000000000000000000000000000000000000000000000000\n      dup2\n      mstore\n      0x04\n      add\n      tag_58\n      swap1\n      tag_59\n      jump\t// in\n    tag_58:\n      mload(0x40)\n      dup1\n      swap2\n      sub\n      swap1\n      revert\n    tag_57:\n        /* \"contracts/Bank.sol\":1585:1591  amount */\n      dup1\n        /* \"contracts/Bank.sol\":1560:1569  deposited */\n      0x00\n        /* \"contracts/Bank.sol\":1560:1581  deposited[msg.sender] */\n      dup1\n        /* \"contracts/Bank.sol\":1570:1580  msg.sender */\n      caller\n        /* \"contracts/Bank.sol\":1560:1581  deposited[msg.sender] */\n      0xffffffffffffffffffffffffffffffffffffffff\n      and\n      0xffffffffffffffffffffffffffffffffffffffff\n      and\n      dup2\n      mstore\n      0x20\n      add\n      swap1\n      dup2\n      mstore\n      0x20\n      add\n      0x00\n      keccak256\n      0x00\n        /* \"contracts/Bank.sol\":1560:1591  deposited[msg.sender] += amount */\n      dup3\n      dup3\n      sload\n      tag_60\n      swap2\n      swap1\n      tag_48\n      jump\t// in\n    tag_60:\n      swap3\n      pop\n      pop\n      dup2\n      swap1\n      sstore\n      pop\n        /* \"contracts/Bank.sol\":1138:1600  function deposit(uint amount) public {... */\n      pop\n      jump\t// out\n        /* \"contracts/Bank.sol\":825:1050  function myBalance() public view returns(uint balance){... */\n    tag_20:\n        /* \"contracts/Bank.sol\":866:878  uint balance */\n      0x00\n        /* \"contracts/Bank.sol\":899:908  deposited */\n      dup1\n        /* \"contracts/Bank.sol\":899:920  deposited[msg.sender] */\n      0x00\n        /* \"contracts/Bank.sol\":909:919  msg.sender */\n      caller\n        /* \"contracts/Bank.sol\":899:920  deposited[msg.sender] */\n      0xffffffffffffffffffffffffffffffffffffffff\n      and\n      0xffffffffffffffffffffffffffffffffffffffff\n      and\n      dup2\n      mstore\n      0x20\n      add\n      swap1\n      dup2\n      mstore\n      0x20\n      add\n      0x00\n      keccak256\n      sload\n        /* \"contracts/Bank.sol\":889:920  balance = deposited[msg.sender] */\n      swap1\n      pop\n        /* \"contracts/Bank.sol\":993:1001  10 ** 18 */\n      0x0de0b6b3a7640000\n        /* \"contracts/Bank.sol\":982:989  balance */\n      dup2\n        /* \"contracts/Bank.sol\":982:1002  balance / (10 ** 18) */\n      tag_62\n      swap2\n      swap1\n      tag_63\n      jump\t// in\n    tag_62:\n        /* \"contracts/Bank.sol\":972:1002  balance = balance / (10 ** 18) */\n      swap1\n      pop\n        /* \"contracts/Bank.sol\":825:1050  function myBalance() public view returns(uint balance){... */\n      swap1\n      jump\t// out\n        /* \"contracts/Bank.sol\":233:274  mapping(address => uint) public deposited */\n    tag_26:\n      mstore(0x20, 0x00)\n      dup1\n      0x00\n      mstore\n      keccak256(0x00, 0x40)\n      0x00\n      swap2\n      pop\n      swap1\n      pop\n      sload\n      dup2\n      jump\t// out\n        /* \"@openzeppelin/contracts/token/ERC20/utils/SafeERC20.sol\":1271:1431  function safeTransfer(IERC20 token, address to, uint256 value) internal {... */\n    tag_37:\n        /* \"@openzeppelin/contracts/token/ERC20/utils/SafeERC20.sol\":1353:1424  _callOptionalReturn(token, abi.encodeCall(token.transfer, (to, value))) */\n      tag_65\n        /* \"@openzeppelin/contracts/token/ERC20/utils/SafeERC20.sol\":1373:1378  token */\n      dup4\n        /* \"@openzeppelin/contracts/token/ERC20/utils/SafeERC20.sol\":1395:1400  token */\n      dup5\n        /* \"@openzeppelin/contracts/token/ERC20/utils/SafeERC20.sol\":1395:1409  token.transfer */\n      0xffffffffffffffffffffffffffffffffffffffff\n      and\n      0xa9059cbb\n        /* \"@openzeppelin/contracts/token/ERC20/utils/SafeERC20.sol\":1412:1414  to */\n      dup6\n        /* \"@openzeppelin/contracts/token/ERC20/utils/SafeERC20.sol\":1416:1421  value */\n      dup6\n        /* \"@openzeppelin/contracts/token/ERC20/utils/SafeERC20.sol\":1380:1423  abi.encodeCall(token.transfer, (to, value)) */\n      add(0x24, mload(0x40))\n      tag_66\n      swap3\n      swap2\n      swap1\n      tag_67\n      jump\t// in\n    tag_66:\n      mload(0x40)\n      0x20\n      dup2\n      dup4\n      sub\n      sub\n      dup2\n      mstore\n      swap1\n      0x40\n      mstore\n      swap2\n      pop\n      0xe0\n      shl\n      0x20\n      dup3\n      add\n      dup1\n      mload\n      0xffffffffffffffffffffffffffffffffffffffffffffffffffffffff\n      dup4\n      dup2\n      dup4\n      and\n      or\n      dup4\n      mstore\n      pop\n      pop\n      pop\n      pop\n        /* \"@openzeppelin/contracts/token/ERC20/utils/SafeERC20.sol\":1353:1372  _callOptionalReturn */\n      tag_68\n        /* \"@openzeppelin/contracts/token/ERC20/utils/SafeERC20.sol\":1353:1424  _callOptionalReturn(token, abi.encodeCall(token.transfer, (to, value))) */\n      jump\t// in\n    tag_65:\n        /* \"@openzeppelin/contracts/token/ERC20/utils/SafeERC20.sol\":1271:1431  function safeTransfer(IERC20 token, address to, uint256 value) internal {... */\n      pop\n      pop\n      pop\n      jump\t// out\n        /* \"@openzeppelin/contracts/token/ERC20/utils/SafeERC20.sol\":7738:8458  function _callOptionalReturn(IERC20 token, bytes memory data) private {... */\n    tag_68:\n        /* \"@openzeppelin/contracts/token/ERC20/utils/SafeERC20.sol\":7818:7836  uint256 returnSize */\n      0x00\n        /* \"@openzeppelin/contracts/token/ERC20/utils/SafeERC20.sol\":7846:7865  uint256 returnValue */\n      dup1\n        /* \"@openzeppelin/contracts/token/ERC20/utils/SafeERC20.sol\":7984:7988  0x20 */\n      0x20\n        /* \"@openzeppelin/contracts/token/ERC20/utils/SafeERC20.sol\":7981:7982  0 */\n      0x00\n        /* \"@openzeppelin/contracts/token/ERC20/utils/SafeERC20.sol\":7974:7978  data */\n      dup5\n        /* \"@openzeppelin/contracts/token/ERC20/utils/SafeERC20.sol\":7968:7979  mload(data) */\n      mload\n        /* \"@openzeppelin/contracts/token/ERC20/utils/SafeERC20.sol\":7961:7965  0x20 */\n      0x20\n        /* \"@openzeppelin/contracts/token/ERC20/utils/SafeERC20.sol\":7955:7959  data */\n      dup7\n        /* \"@openzeppelin/contracts/token/ERC20/utils/SafeERC20.sol\":7951:7966  add(data, 0x20) */\n      add\n        /* \"@openzeppelin/contracts/token/ERC20/utils/SafeERC20.sol\":7948:7949  0 */\n      0x00\n        /* \"@openzeppelin/contracts/token/ERC20/utils/SafeERC20.sol\":7941:7946  token */\n      dup9\n        /* \"@openzeppelin/contracts/token/ERC20/utils/SafeERC20.sol\":7934:7939  gas() */\n      gas\n        /* \"@openzeppelin/contracts/token/ERC20/utils/SafeERC20.sol\":7929:7989  call(gas(), token, 0, add(data, 0x20), mload(data), 0, 0x20) */\n      call\n        /* \"@openzeppelin/contracts/token/ERC20/utils/SafeERC20.sol\":8041:8048  success */\n      dup1\n        /* \"@openzeppelin/contracts/token/ERC20/utils/SafeERC20.sol\":8031:8207  if iszero(success) {... */\n      tag_70\n      jumpi\n        /* \"@openzeppelin/contracts/token/ERC20/utils/SafeERC20.sol\":8085:8089  0x40 */\n      0x40\n        /* \"@openzeppelin/contracts/token/ERC20/utils/SafeERC20.sol\":8079:8090  mload(0x40) */\n      mload\n        /* \"@openzeppelin/contracts/token/ERC20/utils/SafeERC20.sol\":8130:8146  returndatasize() */\n      returndatasize\n        /* \"@openzeppelin/contracts/token/ERC20/utils/SafeERC20.sol\":8127:8128  0 */\n      0x00\n        /* \"@openzeppelin/contracts/token/ERC20/utils/SafeERC20.sol\":8122:8125  ptr */\n      dup3\n        /* \"@openzeppelin/contracts/token/ERC20/utils/SafeERC20.sol\":8107:8147  returndatacopy(ptr, 0, returndatasize()) */\n      returndatacopy\n        /* \"@openzeppelin/contracts/token/ERC20/utils/SafeERC20.sol\":8176:8192  returndatasize() */\n      returndatasize\n        /* \"@openzeppelin/contracts/token/ERC20/utils/SafeERC20.sol\":8171:8174  ptr */\n      dup2\n        /* \"@openzeppelin/contracts/token/ERC20/utils/SafeERC20.sol\":8164:8193  revert(ptr, returndatasize()) */\n      revert\n        /* \"@openzeppelin/contracts/token/ERC20/utils/SafeERC20.sol\":8031:8207  if iszero(success) {... */\n    tag_70:\n        /* \"@openzeppelin/contracts/token/ERC20/utils/SafeERC20.sol\":8234:8250  returndatasize() */\n      returndatasize\n        /* \"@openzeppelin/contracts/token/ERC20/utils/SafeERC20.sol\":8220:8250  returnSize := returndatasize() */\n      swap3\n      pop\n        /* \"@openzeppelin/contracts/token/ERC20/utils/SafeERC20.sol\":8284:8285  0 */\n      0x00\n        /* \"@openzeppelin/contracts/token/ERC20/utils/SafeERC20.sol\":8278:8286  mload(0) */\n      mload\n        /* \"@openzeppelin/contracts/token/ERC20/utils/SafeERC20.sol\":8263:8286  returnValue := mload(0) */\n      swap2\n      pop\n        /* \"@openzeppelin/contracts/token/ERC20/utils/SafeERC20.sol\":7900:8296  {... */\n      pop\n        /* \"@openzeppelin/contracts/token/ERC20/utils/SafeERC20.sol\":8324:8325  0 */\n      0x00\n        /* \"@openzeppelin/contracts/token/ERC20/utils/SafeERC20.sol\":8310:8320  returnSize */\n      dup3\n        /* \"@openzeppelin/contracts/token/ERC20/utils/SafeERC20.sol\":8310:8325  returnSize == 0 */\n      eq\n        /* \"@openzeppelin/contracts/token/ERC20/utils/SafeERC20.sol\":8310:8378  returnSize == 0 ? address(token).code.length == 0 : returnValue != 1 */\n      tag_71\n      jumpi\n        /* \"@openzeppelin/contracts/token/ERC20/utils/SafeERC20.sol\":8377:8378  1 */\n      0x01\n        /* \"@openzeppelin/contracts/token/ERC20/utils/SafeERC20.sol\":8362:8373  returnValue */\n      dup2\n        /* \"@openzeppelin/contracts/token/ERC20/utils/SafeERC20.sol\":8362:8378  returnValue != 1 */\n      eq\n      iszero\n        /* \"@openzeppelin/contracts/token/ERC20/utils/SafeERC20.sol\":8310:8378  returnSize == 0 ? address(token).code.length == 0 : returnValue != 1 */\n      jump(tag_72)\n    tag_71:\n        /* \"@openzeppelin/contracts/token/ERC20/utils/SafeERC20.sol\":8358:8359  0 */\n      0x00\n        /* \"@openzeppelin/contracts/token/ERC20/utils/SafeERC20.sol\":8336:8341  token */\n      dup5\n        /* \"@openzeppelin/contracts/token/ERC20/utils/SafeERC20.sol\":8328:8354  address(token).code.length */\n      0xffffffffffffffffffffffffffffffffffffffff\n      and\n      extcodesize\n        /* \"@openzeppelin/contracts/token/ERC20/utils/SafeERC20.sol\":8328:8359  address(token).code.length == 0 */\n      eq\n        /* \"@openzeppelin/contracts/token/ERC20/utils/SafeERC20.sol\":8310:8378  returnSize == 0 ? address(token).code.length == 0 : returnValue != 1 */\n    tag_72:\n        /* \"@openzeppelin/contracts/token/ERC20/utils/SafeERC20.sol\":8306:8452  if (returnSize == 0 ? address(token).code.length == 0 : returnValue != 1) {... */\n      iszero\n      tag_73\n      jumpi\n        /* \"@openzeppelin/contracts/token/ERC20/utils/SafeERC20.sol\":8434:8439  token */\n      dup4\n        /* \"@openzeppelin/contracts/token/ERC20/utils/SafeERC20.sol\":8401:8441  SafeERC20FailedOperation(address(token)) */\n      mload(0x40)\n      0x5274afe700000000000000000000000000000000000000000000000000000000\n      dup2\n      mstore\n      0x04\n      add\n      tag_74\n      swap2\n      swap1\n      tag_75\n      jump\t// in\n    tag_74:\n      mload(0x40)\n      dup1\n      swap2\n      sub\n      swap1\n      revert\n        /* \"@openzeppelin/contracts/token/ERC20/utils/SafeERC20.sol\":8306:8452  if (returnSize == 0 ? address(token).code.length == 0 : returnValue != 1) {... */\n    tag_73:\n        /* \"@openzeppelin/contracts/token/ERC20/utils/SafeERC20.sol\":7808:8458  {... */\n      pop\n      pop\n        /* \"@openzeppelin/contracts/token/ERC20/utils/SafeERC20.sol\":7738:8458  function _callOptionalReturn(IERC20 token, bytes memory data) private {... */\n      pop\n      pop\n      jump\t// out\n        /* \"#utility.yul\":88:205   */\n    tag_77:\n        /* \"#utility.yul\":197:198   */\n      0x00\n        /* \"#utility.yul\":194:195   */\n      dup1\n        /* \"#utility.yul\":187:199   */\n      revert\n        /* \"#utility.yul\":334:411   */\n    tag_79:\n        /* \"#utility.yul\":371:378   */\n      0x00\n        /* \"#utility.yul\":400:405   */\n      dup2\n        /* \"#utility.yul\":389:405   */\n      swap1\n      pop\n        /* \"#utility.yul\":334:411   */\n      swap2\n      swap1\n      pop\n      jump\t// out\n        /* \"#utility.yul\":417:539   */\n    tag_80:\n        /* \"#utility.yul\":490:514   */\n      tag_104\n        /* \"#utility.yul\":508:513   */\n      dup2\n        /* \"#utility.yul\":490:514   */\n      tag_79\n      jump\t// in\n    tag_104:\n        /* \"#utility.yul\":483:488   */\n      dup2\n        /* \"#utility.yul\":480:515   */\n      eq\n        /* \"#utility.yul\":470:533   */\n      tag_105\n      jumpi\n        /* \"#utility.yul\":529:530   */\n      0x00\n        /* \"#utility.yul\":526:527   */\n      dup1\n        /* \"#utility.yul\":519:531   */\n      revert\n        /* \"#utility.yul\":470:533   */\n    tag_105:\n        /* \"#utility.yul\":417:539   */\n      pop\n      jump\t// out\n        /* \"#utility.yul\":545:684   */\n    tag_81:\n        /* \"#utility.yul\":591:596   */\n      0x00\n        /* \"#utility.yul\":629:635   */\n      dup2\n        /* \"#utility.yul\":616:636   */\n      calldataload\n        /* \"#utility.yul\":607:636   */\n      swap1\n      pop\n        /* \"#utility.yul\":645:678   */\n      tag_107\n        /* \"#utility.yul\":672:677   */\n      dup2\n        /* \"#utility.yul\":645:678   */\n      tag_80\n      jump\t// in\n    tag_107:\n        /* \"#utility.yul\":545:684   */\n      swap3\n      swap2\n      pop\n      pop\n      jump\t// out\n        /* \"#utility.yul\":690:1019   */\n    tag_10:\n        /* \"#utility.yul\":749:755   */\n      0x00\n        /* \"#utility.yul\":798:800   */\n      0x20\n        /* \"#utility.yul\":786:795   */\n      dup3\n        /* \"#utility.yul\":777:784   */\n      dup5\n        /* \"#utility.yul\":773:796   */\n      sub\n        /* \"#utility.yul\":769:801   */\n      slt\n        /* \"#utility.yul\":766:885   */\n      iszero\n      tag_109\n      jumpi\n        /* \"#utility.yul\":804:883   */\n      tag_110\n      tag_77\n      jump\t// in\n    tag_110:\n        /* \"#utility.yul\":766:885   */\n    tag_109:\n        /* \"#utility.yul\":924:925   */\n      0x00\n        /* \"#utility.yul\":949:1002   */\n      tag_111\n        /* \"#utility.yul\":994:1001   */\n      dup5\n        /* \"#utility.yul\":985:991   */\n      dup3\n        /* \"#utility.yul\":974:983   */\n      dup6\n        /* \"#utility.yul\":970:992   */\n      add\n        /* \"#utility.yul\":949:1002   */\n      tag_81\n      jump\t// in\n    tag_111:\n        /* \"#utility.yul\":939:1002   */\n      swap2\n      pop\n        /* \"#utility.yul\":895:1012   */\n      pop\n        /* \"#utility.yul\":690:1019   */\n      swap3\n      swap2\n      pop\n      pop\n      jump\t// out\n        /* \"#utility.yul\":1025:1151   */\n    tag_82:\n        /* \"#utility.yul\":1062:1069   */\n      0x00\n        /* \"#utility.yul\":1102:1144   */\n      0xffffffffffffffffffffffffffffffffffffffff\n        /* \"#utility.yul\":1095:1100   */\n      dup3\n        /* \"#utility.yul\":1091:1145   */\n      and\n        /* \"#utility.yul\":1080:1145   */\n      swap1\n      pop\n        /* \"#utility.yul\":1025:1151   */\n      swap2\n      swap1\n      pop\n      jump\t// out\n        /* \"#utility.yul\":1157:1253   */\n    tag_83:\n        /* \"#utility.yul\":1194:1201   */\n      0x00\n        /* \"#utility.yul\":1223:1247   */\n      tag_114\n        /* \"#utility.yul\":1241:1246   */\n      dup3\n        /* \"#utility.yul\":1223:1247   */\n      tag_82\n      jump\t// in\n    tag_114:\n        /* \"#utility.yul\":1212:1247   */\n      swap1\n      pop\n        /* \"#utility.yul\":1157:1253   */\n      swap2\n      swap1\n      pop\n      jump\t// out\n        /* \"#utility.yul\":1259:1381   */\n    tag_84:\n        /* \"#utility.yul\":1332:1356   */\n      tag_116\n        /* \"#utility.yul\":1350:1355   */\n      dup2\n        /* \"#utility.yul\":1332:1356   */\n      tag_83\n      jump\t// in\n    tag_116:\n        /* \"#utility.yul\":1325:1330   */\n      dup2\n        /* \"#utility.yul\":1322:1357   */\n      eq\n        /* \"#utility.yul\":1312:1375   */\n      tag_117\n      jumpi\n        /* \"#utility.yul\":1371:1372   */\n      0x00\n        /* \"#utility.yul\":1368:1369   */\n      dup1\n        /* \"#utility.yul\":1361:1373   */\n      revert\n        /* \"#utility.yul\":1312:1375   */\n    tag_117:\n        /* \"#utility.yul\":1259:1381   */\n      pop\n      jump\t// out\n        /* \"#utility.yul\":1387:1526   */\n    tag_85:\n        /* \"#utility.yul\":1433:1438   */\n      0x00\n        /* \"#utility.yul\":1471:1477   */\n      dup2\n        /* \"#utility.yul\":1458:1478   */\n      calldataload\n        /* \"#utility.yul\":1449:1478   */\n      swap1\n      pop\n        /* \"#utility.yul\":1487:1520   */\n      tag_119\n        /* \"#utility.yul\":1514:1519   */\n      dup2\n        /* \"#utility.yul\":1487:1520   */\n      tag_84\n      jump\t// in\n    tag_119:\n        /* \"#utility.yul\":1387:1526   */\n      swap3\n      swap2\n      pop\n      pop\n      jump\t// out\n        /* \"#utility.yul\":1532:2006   */\n    tag_14:\n        /* \"#utility.yul\":1600:1606   */\n      0x00\n        /* \"#utility.yul\":1608:1614   */\n      dup1\n        /* \"#utility.yul\":1657:1659   */\n      0x40\n        /* \"#utility.yul\":1645:1654   */\n      dup4\n        /* \"#utility.yul\":1636:1643   */\n      dup6\n        /* \"#utility.yul\":1632:1655   */\n      sub\n        /* \"#utility.yul\":1628:1660   */\n      slt\n        /* \"#utility.yul\":1625:1744   */\n      iszero\n      tag_121\n      jumpi\n        /* \"#utility.yul\":1663:1742   */\n      tag_122\n      tag_77\n      jump\t// in\n    tag_122:\n        /* \"#utility.yul\":1625:1744   */\n    tag_121:\n        /* \"#utility.yul\":1783:1784   */\n      0x00\n        /* \"#utility.yul\":1808:1861   */\n      tag_123\n        /* \"#utility.yul\":1853:1860   */\n      dup6\n        /* \"#utility.yul\":1844:1850   */\n      dup3\n        /* \"#utility.yul\":1833:1842   */\n      dup7\n        /* \"#utility.yul\":1829:1851   */\n      add\n        /* \"#utility.yul\":1808:1861   */\n      tag_85\n      jump\t// in\n    tag_123:\n        /* \"#utility.yul\":1798:1861   */\n      swap3\n      pop\n        /* \"#utility.yul\":1754:1871   */\n      pop\n        /* \"#utility.yul\":1910:1912   */\n      0x20\n        /* \"#utility.yul\":1936:1989   */\n      tag_124\n        /* \"#utility.yul\":1981:1988   */\n      dup6\n        /* \"#utility.yul\":1972:1978   */\n      dup3\n        /* \"#utility.yul\":1961:1970   */\n      dup7\n        /* \"#utility.yul\":1957:1979   */\n      add\n        /* \"#utility.yul\":1936:1989   */\n      tag_81\n      jump\t// in\n    tag_124:\n        /* \"#utility.yul\":1926:1989   */\n      swap2\n      pop\n        /* \"#utility.yul\":1881:1999   */\n      pop\n        /* \"#utility.yul\":1532:2006   */\n      swap3\n      pop\n      swap3\n      swap1\n      pop\n      jump\t// out\n        /* \"#utility.yul\":2012:2130   */\n    tag_86:\n        /* \"#utility.yul\":2099:2123   */\n      tag_126\n        /* \"#utility.yul\":2117:2122   */\n      dup2\n        /* \"#utility.yul\":2099:2123   */\n      tag_79\n      jump\t// in\n    tag_126:\n        /* \"#utility.yul\":2094:2097   */\n      dup3\n        /* \"#utility.yul\":2087:2124   */\n      mstore\n        /* \"#utility.yul\":2012:2130   */\n      pop\n      pop\n      jump\t// out\n        /* \"#utility.yul\":2136:2358   */\n    tag_22:\n        /* \"#utility.yul\":2229:2233   */\n      0x00\n        /* \"#utility.yul\":2267:2269   */\n      0x20\n        /* \"#utility.yul\":2256:2265   */\n      dup3\n        /* \"#utility.yul\":2252:2270   */\n      add\n        /* \"#utility.yul\":2244:2270   */\n      swap1\n      pop\n        /* \"#utility.yul\":2280:2351   */\n      tag_128\n        /* \"#utility.yul\":2348:2349   */\n      0x00\n        /* \"#utility.yul\":2337:2346   */\n      dup4\n        /* \"#utility.yul\":2333:2350   */\n      add\n        /* \"#utility.yul\":2324:2330   */\n      dup5\n        /* \"#utility.yul\":2280:2351   */\n      tag_86\n      jump\t// in\n    tag_128:\n        /* \"#utility.yul\":2136:2358   */\n      swap3\n      swap2\n      pop\n      pop\n      jump\t// out\n        /* \"#utility.yul\":2364:2693   */\n    tag_25:\n        /* \"#utility.yul\":2423:2429   */\n      0x00\n        /* \"#utility.yul\":2472:2474   */\n      0x20\n        /* \"#utility.yul\":2460:2469   */\n      dup3\n        /* \"#utility.yul\":2451:2458   */\n      dup5\n        /* \"#utility.yul\":2447:2470   */\n      sub\n        /* \"#utility.yul\":2443:2475   */\n      slt\n        /* \"#utility.yul\":2440:2559   */\n      iszero\n      tag_130\n      jumpi\n        /* \"#utility.yul\":2478:2557   */\n      tag_131\n      tag_77\n      jump\t// in\n    tag_131:\n        /* \"#utility.yul\":2440:2559   */\n    tag_130:\n        /* \"#utility.yul\":2598:2599   */\n      0x00\n        /* \"#utility.yul\":2623:2676   */\n      tag_132\n        /* \"#utility.yul\":2668:2675   */\n      dup5\n        /* \"#utility.yul\":2659:2665   */\n      dup3\n        /* \"#utility.yul\":2648:2657   */\n      dup6\n        /* \"#utility.yul\":2644:2666   */\n      add\n        /* \"#utility.yul\":2623:2676   */\n      tag_85\n      jump\t// in\n    tag_132:\n        /* \"#utility.yul\":2613:2676   */\n      swap2\n      pop\n        /* \"#utility.yul\":2569:2686   */\n      pop\n        /* \"#utility.yul\":2364:2693   */\n      swap3\n      swap2\n      pop\n      pop\n      jump\t// out\n        /* \"#utility.yul\":2699:2879   */\n    tag_87:\n        /* \"#utility.yul\":2747:2824   */\n      0x4e487b7100000000000000000000000000000000000000000000000000000000\n        /* \"#utility.yul\":2744:2745   */\n      0x00\n        /* \"#utility.yul\":2737:2825   */\n      mstore\n        /* \"#utility.yul\":2844:2848   */\n      0x11\n        /* \"#utility.yul\":2841:2842   */\n      0x04\n        /* \"#utility.yul\":2834:2849   */\n      mstore\n        /* \"#utility.yul\":2868:2872   */\n      0x24\n        /* \"#utility.yul\":2865:2866   */\n      0x00\n        /* \"#utility.yul\":2858:2873   */\n      revert\n        /* \"#utility.yul\":2885:3295   */\n    tag_30:\n        /* \"#utility.yul\":2925:2932   */\n      0x00\n        /* \"#utility.yul\":2948:2968   */\n      tag_135\n        /* \"#utility.yul\":2966:2967   */\n      dup3\n        /* \"#utility.yul\":2948:2968   */\n      tag_79\n      jump\t// in\n    tag_135:\n        /* \"#utility.yul\":2943:2968   */\n      swap2\n      pop\n        /* \"#utility.yul\":2982:3002   */\n      tag_136\n        /* \"#utility.yul\":3000:3001   */\n      dup4\n        /* \"#utility.yul\":2982:3002   */\n      tag_79\n      jump\t// in\n    tag_136:\n        /* \"#utility.yul\":2977:3002   */\n      swap3\n      pop\n        /* \"#utility.yul\":3037:3038   */\n      dup3\n        /* \"#utility.yul\":3034:3035   */\n      dup3\n        /* \"#utility.yul\":3030:3039   */\n      mul\n        /* \"#utility.yul\":3059:3089   */\n      tag_137\n        /* \"#utility.yul\":3077:3088   */\n      dup2\n        /* \"#utility.yul\":3059:3089   */\n      tag_79\n      jump\t// in\n    tag_137:\n        /* \"#utility.yul\":3048:3089   */\n      swap2\n      pop\n        /* \"#utility.yul\":3238:3239   */\n      dup3\n        /* \"#utility.yul\":3229:3236   */\n      dup3\n        /* \"#utility.yul\":3225:3240   */\n      div\n        /* \"#utility.yul\":3222:3223   */\n      dup5\n        /* \"#utility.yul\":3219:3241   */\n      eq\n        /* \"#utility.yul\":3199:3200   */\n      dup4\n        /* \"#utility.yul\":3192:3201   */\n      iszero\n        /* \"#utility.yul\":3172:3255   */\n      or\n        /* \"#utility.yul\":3149:3288   */\n      tag_138\n      jumpi\n        /* \"#utility.yul\":3268:3286   */\n      tag_139\n      tag_87\n      jump\t// in\n    tag_139:\n        /* \"#utility.yul\":3149:3288   */\n    tag_138:\n        /* \"#utility.yul\":2933:3295   */\n      pop\n        /* \"#utility.yul\":2885:3295   */\n      swap3\n      swap2\n      pop\n      pop\n      jump\t// out\n        /* \"#utility.yul\":3301:3470   */\n    tag_88:\n        /* \"#utility.yul\":3385:3396   */\n      0x00\n        /* \"#utility.yul\":3419:3425   */\n      dup3\n        /* \"#utility.yul\":3414:3417   */\n      dup3\n        /* \"#utility.yul\":3407:3426   */\n      mstore\n        /* \"#utility.yul\":3459:3463   */\n      0x20\n        /* \"#utility.yul\":3454:3457   */\n      dup3\n        /* \"#utility.yul\":3450:3464   */\n      add\n        /* \"#utility.yul\":3435:3464   */\n      swap1\n      pop\n        /* \"#utility.yul\":3301:3470   */\n      swap3\n      swap2\n      pop\n      pop\n      jump\t// out\n        /* \"#utility.yul\":3476:3717   */\n    tag_89:\n        /* \"#utility.yul\":3616:3650   */\n      0x776974686472617720616d6f756e742073686f756c64206e6f74206772656174\n        /* \"#utility.yul\":3612:3613   */\n      0x00\n        /* \"#utility.yul\":3604:3610   */\n      dup3\n        /* \"#utility.yul\":3600:3614   */\n      add\n        /* \"#utility.yul\":3593:3651   */\n      mstore\n        /* \"#utility.yul\":3685:3709   */\n      0x6572207468616e206465706f73697420616d6f756e7400000000000000000000\n        /* \"#utility.yul\":3680:3682   */\n      0x20\n        /* \"#utility.yul\":3672:3678   */\n      dup3\n        /* \"#utility.yul\":3668:3683   */\n      add\n        /* \"#utility.yul\":3661:3710   */\n      mstore\n        /* \"#utility.yul\":3476:3717   */\n      pop\n      jump\t// out\n        /* \"#utility.yul\":3723:4089   */\n    tag_90:\n        /* \"#utility.yul\":3865:3868   */\n      0x00\n        /* \"#utility.yul\":3886:3953   */\n      tag_143\n        /* \"#utility.yul\":3950:3952   */\n      0x36\n        /* \"#utility.yul\":3945:3948   */\n      dup4\n        /* \"#utility.yul\":3886:3953   */\n      tag_88\n      jump\t// in\n    tag_143:\n        /* \"#utility.yul\":3879:3953   */\n      swap2\n      pop\n        /* \"#utility.yul\":3962:4055   */\n      tag_144\n        /* \"#utility.yul\":4051:4054   */\n      dup3\n        /* \"#utility.yul\":3962:4055   */\n      tag_89\n      jump\t// in\n    tag_144:\n        /* \"#utility.yul\":4080:4082   */\n      0x40\n        /* \"#utility.yul\":4075:4078   */\n      dup3\n        /* \"#utility.yul\":4071:4083   */\n      add\n        /* \"#utility.yul\":4064:4083   */\n      swap1\n      pop\n        /* \"#utility.yul\":3723:4089   */\n      swap2\n      swap1\n      pop\n      jump\t// out\n        /* \"#utility.yul\":4095:4514   */\n    tag_33:\n        /* \"#utility.yul\":4261:4265   */\n      0x00\n        /* \"#utility.yul\":4299:4301   */\n      0x20\n        /* \"#utility.yul\":4288:4297   */\n      dup3\n        /* \"#utility.yul\":4284:4302   */\n      add\n        /* \"#utility.yul\":4276:4302   */\n      swap1\n      pop\n        /* \"#utility.yul\":4348:4357   */\n      dup2\n        /* \"#utility.yul\":4342:4346   */\n      dup2\n        /* \"#utility.yul\":4338:4358   */\n      sub\n        /* \"#utility.yul\":4334:4335   */\n      0x00\n        /* \"#utility.yul\":4323:4332   */\n      dup4\n        /* \"#utility.yul\":4319:4336   */\n      add\n        /* \"#utility.yul\":4312:4359   */\n      mstore\n        /* \"#utility.yul\":4376:4507   */\n      tag_146\n        /* \"#utility.yul\":4502:4506   */\n      dup2\n        /* \"#utility.yul\":4376:4507   */\n      tag_90\n      jump\t// in\n    tag_146:\n        /* \"#utility.yul\":4368:4507   */\n      swap1\n      pop\n        /* \"#utility.yul\":4095:4514   */\n      swap2\n      swap1\n      pop\n      jump\t// out\n        /* \"#utility.yul\":4520:4714   */\n    tag_39:\n        /* \"#utility.yul\":4560:4564   */\n      0x00\n        /* \"#utility.yul\":4580:4600   */\n      tag_148\n        /* \"#utility.yul\":4598:4599   */\n      dup3\n        /* \"#utility.yul\":4580:4600   */\n      tag_79\n      jump\t// in\n    tag_148:\n        /* \"#utility.yul\":4575:4600   */\n      swap2\n      pop\n        /* \"#utility.yul\":4614:4634   */\n      tag_149\n        /* \"#utility.yul\":4632:4633   */\n      dup4\n        /* \"#utility.yul\":4614:4634   */\n      tag_79\n      jump\t// in\n    tag_149:\n        /* \"#utility.yul\":4609:4634   */\n      swap3\n      pop\n        /* \"#utility.yul\":4658:4659   */\n      dup3\n        /* \"#utility.yul\":4655:4656   */\n      dup3\n        /* \"#utility.yul\":4651:4660   */\n      sub\n        /* \"#utility.yul\":4643:4660   */\n      swap1\n      pop\n        /* \"#utility.yul\":4682:4683   */\n      dup2\n        /* \"#utility.yul\":4676:4680   */\n      dup2\n        /* \"#utility.yul\":4673:4684   */\n      gt\n        /* \"#utility.yul\":4670:4707   */\n      iszero\n      tag_150\n      jumpi\n        /* \"#utility.yul\":4687:4705   */\n      tag_151\n      tag_87\n      jump\t// in\n    tag_151:\n        /* \"#utility.yul\":4670:4707   */\n    tag_150:\n        /* \"#utility.yul\":4520:4714   */\n      swap3\n      swap2\n      pop\n      pop\n      jump\t// out\n        /* \"#utility.yul\":4720:4911   */\n    tag_48:\n        /* \"#utility.yul\":4760:4763   */\n      0x00\n        /* \"#utility.yul\":4779:4799   */\n      tag_153\n        /* \"#utility.yul\":4797:4798   */\n      dup3\n        /* \"#utility.yul\":4779:4799   */\n      tag_79\n      jump\t// in\n    tag_153:\n        /* \"#utility.yul\":4774:4799   */\n      swap2\n      pop\n        /* \"#utility.yul\":4813:4833   */\n      tag_154\n        /* \"#utility.yul\":4831:4832   */\n      dup4\n        /* \"#utility.yul\":4813:4833   */\n      tag_79\n      jump\t// in\n    tag_154:\n        /* \"#utility.yul\":4808:4833   */\n      swap3\n      pop\n        /* \"#utility.yul\":4856:4857   */\n      dup3\n        /* \"#utility.yul\":4853:4854   */\n      dup3\n        /* \"#utility.yul\":4849:4858   */\n      add\n        /* \"#utility.yul\":4842:4858   */\n      swap1\n      pop\n        /* \"#utility.yul\":4877:4880   */\n      dup1\n        /* \"#utility.yul\":4874:4875   */\n      dup3\n        /* \"#utility.yul\":4871:4881   */\n      gt\n        /* \"#utility.yul\":4868:4904   */\n      iszero\n      tag_155\n      jumpi\n        /* \"#utility.yul\":4884:4902   */\n      tag_156\n      tag_87\n      jump\t// in\n    tag_156:\n        /* \"#utility.yul\":4868:4904   */\n    tag_155:\n        /* \"#utility.yul\":4720:4911   */\n      swap3\n      swap2\n      pop\n      pop\n      jump\t// out\n        /* \"#utility.yul\":4917:5035   */\n    tag_91:\n        /* \"#utility.yul\":5004:5028   */\n      tag_158\n        /* \"#utility.yul\":5022:5027   */\n      dup2\n        /* \"#utility.yul\":5004:5028   */\n      tag_83\n      jump\t// in\n    tag_158:\n        /* \"#utility.yul\":4999:5002   */\n      dup3\n        /* \"#utility.yul\":4992:5029   */\n      mstore\n        /* \"#utility.yul\":4917:5035   */\n      pop\n      pop\n      jump\t// out\n        /* \"#utility.yul\":5041:5483   */\n    tag_52:\n        /* \"#utility.yul\":5190:5194   */\n      0x00\n        /* \"#utility.yul\":5228:5230   */\n      0x60\n        /* \"#utility.yul\":5217:5226   */\n      dup3\n        /* \"#utility.yul\":5213:5231   */\n      add\n        /* \"#utility.yul\":5205:5231   */\n      swap1\n      pop\n        /* \"#utility.yul\":5241:5312   */\n      tag_160\n        /* \"#utility.yul\":5309:5310   */\n      0x00\n        /* \"#utility.yul\":5298:5307   */\n      dup4\n        /* \"#utility.yul\":5294:5311   */\n      add\n        /* \"#utility.yul\":5285:5291   */\n      dup7\n        /* \"#utility.yul\":5241:5312   */\n      tag_91\n      jump\t// in\n    tag_160:\n        /* \"#utility.yul\":5322:5394   */\n      tag_161\n        /* \"#utility.yul\":5390:5392   */\n      0x20\n        /* \"#utility.yul\":5379:5388   */\n      dup4\n        /* \"#utility.yul\":5375:5393   */\n      add\n        /* \"#utility.yul\":5366:5372   */\n      dup6\n        /* \"#utility.yul\":5322:5394   */\n      tag_91\n      jump\t// in\n    tag_161:\n        /* \"#utility.yul\":5404:5476   */\n      tag_162\n        /* \"#utility.yul\":5472:5474   */\n      0x40\n        /* \"#utility.yul\":5461:5470   */\n      dup4\n        /* \"#utility.yul\":5457:5475   */\n      add\n        /* \"#utility.yul\":5448:5454   */\n      dup5\n        /* \"#utility.yul\":5404:5476   */\n      tag_86\n      jump\t// in\n    tag_162:\n        /* \"#utility.yul\":5041:5483   */\n      swap5\n      swap4\n      pop\n      pop\n      pop\n      pop\n      jump\t// out\n        /* \"#utility.yul\":5489:5579   */\n    tag_92:\n        /* \"#utility.yul\":5523:5530   */\n      0x00\n        /* \"#utility.yul\":5566:5571   */\n      dup2\n        /* \"#utility.yul\":5559:5572   */\n      iszero\n        /* \"#utility.yul\":5552:5573   */\n      iszero\n        /* \"#utility.yul\":5541:5573   */\n      swap1\n      pop\n        /* \"#utility.yul\":5489:5579   */\n      swap2\n      swap1\n      pop\n      jump\t// out\n        /* \"#utility.yul\":5585:5701   */\n    tag_93:\n        /* \"#utility.yul\":5655:5676   */\n      tag_165\n        /* \"#utility.yul\":5670:5675   */\n      dup2\n        /* \"#utility.yul\":5655:5676   */\n      tag_92\n      jump\t// in\n    tag_165:\n        /* \"#utility.yul\":5648:5653   */\n      dup2\n        /* \"#utility.yul\":5645:5677   */\n      eq\n        /* \"#utility.yul\":5635:5695   */\n      tag_166\n      jumpi\n        /* \"#utility.yul\":5691:5692   */\n      0x00\n        /* \"#utility.yul\":5688:5689   */\n      dup1\n        /* \"#utility.yul\":5681:5693   */\n      revert\n        /* \"#utility.yul\":5635:5695   */\n    tag_166:\n        /* \"#utility.yul\":5585:5701   */\n      pop\n      jump\t// out\n        /* \"#utility.yul\":5707:5844   */\n    tag_94:\n        /* \"#utility.yul\":5761:5766   */\n      0x00\n        /* \"#utility.yul\":5792:5798   */\n      dup2\n        /* \"#utility.yul\":5786:5799   */\n      mload\n        /* \"#utility.yul\":5777:5799   */\n      swap1\n      pop\n        /* \"#utility.yul\":5808:5838   */\n      tag_168\n        /* \"#utility.yul\":5832:5837   */\n      dup2\n        /* \"#utility.yul\":5808:5838   */\n      tag_93\n      jump\t// in\n    tag_168:\n        /* \"#utility.yul\":5707:5844   */\n      swap3\n      swap2\n      pop\n      pop\n      jump\t// out\n        /* \"#utility.yul\":5850:6195   */\n    tag_56:\n        /* \"#utility.yul\":5917:5923   */\n      0x00\n        /* \"#utility.yul\":5966:5968   */\n      0x20\n        /* \"#utility.yul\":5954:5963   */\n      dup3\n        /* \"#utility.yul\":5945:5952   */\n      dup5\n        /* \"#utility.yul\":5941:5964   */\n      sub\n        /* \"#utility.yul\":5937:5969   */\n      slt\n        /* \"#utility.yul\":5934:6053   */\n      iszero\n      tag_170\n      jumpi\n        /* \"#utility.yul\":5972:6051   */\n      tag_171\n      tag_77\n      jump\t// in\n    tag_171:\n        /* \"#utility.yul\":5934:6053   */\n    tag_170:\n        /* \"#utility.yul\":6092:6093   */\n      0x00\n        /* \"#utility.yul\":6117:6178   */\n      tag_172\n        /* \"#utility.yul\":6170:6177   */\n      dup5\n        /* \"#utility.yul\":6161:6167   */\n      dup3\n        /* \"#utility.yul\":6150:6159   */\n      dup6\n        /* \"#utility.yul\":6146:6168   */\n      add\n        /* \"#utility.yul\":6117:6178   */\n      tag_94\n      jump\t// in\n    tag_172:\n        /* \"#utility.yul\":6107:6178   */\n      swap2\n      pop\n        /* \"#utility.yul\":6063:6188   */\n      pop\n        /* \"#utility.yul\":5850:6195   */\n      swap3\n      swap2\n      pop\n      pop\n      jump\t// out\n        /* \"#utility.yul\":6201:6365   */\n    tag_95:\n        /* \"#utility.yul\":6341:6357   */\n      0x6465706f736974206572726f7221000000000000000000000000000000000000\n        /* \"#utility.yul\":6337:6338   */\n      0x00\n        /* \"#utility.yul\":6329:6335   */\n      dup3\n        /* \"#utility.yul\":6325:6339   */\n      add\n        /* \"#utility.yul\":6318:6358   */\n      mstore\n        /* \"#utility.yul\":6201:6365   */\n      pop\n      jump\t// out\n        /* \"#utility.yul\":6371:6737   */\n    tag_96:\n        /* \"#utility.yul\":6513:6516   */\n      0x00\n        /* \"#utility.yul\":6534:6601   */\n      tag_175\n        /* \"#utility.yul\":6598:6600   */\n      0x0e\n        /* \"#utility.yul\":6593:6596   */\n      dup4\n        /* \"#utility.yul\":6534:6601   */\n      tag_88\n      jump\t// in\n    tag_175:\n        /* \"#utility.yul\":6527:6601   */\n      swap2\n      pop\n        /* \"#utility.yul\":6610:6703   */\n      tag_176\n        /* \"#utility.yul\":6699:6702   */\n      dup3\n        /* \"#utility.yul\":6610:6703   */\n      tag_95\n      jump\t// in\n    tag_176:\n        /* \"#utility.yul\":6728:6730   */\n      0x20\n        /* \"#utility.yul\":6723:6726   */\n      dup3\n        /* \"#utility.yul\":6719:6731   */\n      add\n        /* \"#utility.yul\":6712:6731   */\n      swap1\n      pop\n        /* \"#utility.yul\":6371:6737   */\n      swap2\n      swap1\n      pop\n      jump\t// out\n        /* \"#utility.yul\":6743:7162   */\n    tag_59:\n        /* \"#utility.yul\":6909:6913   */\n      0x00\n        /* \"#utility.yul\":6947:6949   */\n      0x20\n        /* \"#utility.yul\":6936:6945   */\n      dup3\n        /* \"#utility.yul\":6932:6950   */\n      add\n        /* \"#utility.yul\":6924:6950   */\n      swap1\n      pop\n        /* \"#utility.yul\":6996:7005   */\n      dup2\n        /* \"#utility.yul\":6990:6994   */\n      dup2\n        /* \"#utility.yul\":6986:7006   */\n      sub\n        /* \"#utility.yul\":6982:6983   */\n      0x00\n        /* \"#utility.yul\":6971:6980   */\n      dup4\n        /* \"#utility.yul\":6967:6984   */\n      add\n        /* \"#utility.yul\":6960:7007   */\n      mstore\n        /* \"#utility.yul\":7024:7155   */\n      tag_178\n        /* \"#utility.yul\":7150:7154   */\n      dup2\n        /* \"#utility.yul\":7024:7155   */\n      tag_96\n      jump\t// in\n    tag_178:\n        /* \"#utility.yul\":7016:7155   */\n      swap1\n      pop\n        /* \"#utility.yul\":6743:7162   */\n      swap2\n      swap1\n      pop\n      jump\t// out\n        /* \"#utility.yul\":7168:7348   */\n    tag_97:\n        /* \"#utility.yul\":7216:7293   */\n      0x4e487b7100000000000000000000000000000000000000000000000000000000\n        /* \"#utility.yul\":7213:7214   */\n      0x00\n        /* \"#utility.yul\":7206:7294   */\n      mstore\n        /* \"#utility.yul\":7313:7317   */\n      0x12\n        /* \"#utility.yul\":7310:7311   */\n      0x04\n        /* \"#utility.yul\":7303:7318   */\n      mstore\n        /* \"#utility.yul\":7337:7341   */\n      0x24\n        /* \"#utility.yul\":7334:7335   */\n      0x00\n        /* \"#utility.yul\":7327:7342   */\n      revert\n        /* \"#utility.yul\":7354:7539   */\n    tag_63:\n        /* \"#utility.yul\":7394:7395   */\n      0x00\n        /* \"#utility.yul\":7411:7431   */\n      tag_181\n        /* \"#utility.yul\":7429:7430   */\n      dup3\n        /* \"#utility.yul\":7411:7431   */\n      tag_79\n      jump\t// in\n    tag_181:\n        /* \"#utility.yul\":7406:7431   */\n      swap2\n      pop\n        /* \"#utility.yul\":7445:7465   */\n      tag_182\n        /* \"#utility.yul\":7463:7464   */\n      dup4\n        /* \"#utility.yul\":7445:7465   */\n      tag_79\n      jump\t// in\n    tag_182:\n        /* \"#utility.yul\":7440:7465   */\n      swap3\n      pop\n        /* \"#utility.yul\":7484:7485   */\n      dup3\n        /* \"#utility.yul\":7474:7509   */\n      tag_183\n      jumpi\n        /* \"#utility.yul\":7489:7507   */\n      tag_184\n      tag_97\n      jump\t// in\n    tag_184:\n        /* \"#utility.yul\":7474:7509   */\n    tag_183:\n        /* \"#utility.yul\":7531:7532   */\n      dup3\n        /* \"#utility.yul\":7528:7529   */\n      dup3\n        /* \"#utility.yul\":7524:7533   */\n      div\n        /* \"#utility.yul\":7519:7533   */\n      swap1\n      pop\n        /* \"#utility.yul\":7354:7539   */\n      swap3\n      swap2\n      pop\n      pop\n      jump\t// out\n        /* \"#utility.yul\":7545:7877   */\n    tag_67:\n        /* \"#utility.yul\":7666:7670   */\n      0x00\n        /* \"#utility.yul\":7704:7706   */\n      0x40\n        /* \"#utility.yul\":7693:7702   */\n      dup3\n        /* \"#utility.yul\":7689:7707   */\n      add\n        /* \"#utility.yul\":7681:7707   */\n      swap1\n      pop\n        /* \"#utility.yul\":7717:7788   */\n      tag_186\n        /* \"#utility.yul\":7785:7786   */\n      0x00\n        /* \"#utility.yul\":7774:7783   */\n      dup4\n        /* \"#utility.yul\":7770:7787   */\n      add\n        /* \"#utility.yul\":7761:7767   */\n      dup6\n        /* \"#utility.yul\":7717:7788   */\n      tag_91\n      jump\t// in\n    tag_186:\n        /* \"#utility.yul\":7798:7870   */\n      tag_187\n        /* \"#utility.yul\":7866:7868   */\n      0x20\n        /* \"#utility.yul\":7855:7864   */\n      dup4\n        /* \"#utility.yul\":7851:7869   */\n      add\n        /* \"#utility.yul\":7842:7848   */\n      dup5\n        /* \"#utility.yul\":7798:7870   */\n      tag_86\n      jump\t// in\n    tag_187:\n        /* \"#utility.yul\":7545:7877   */\n      swap4\n      swap3\n      pop\n      pop\n      pop\n      jump\t// out\n        /* \"#utility.yul\":7883:8105   */\n    tag_75:\n        /* \"#utility.yul\":7976:7980   */\n      0x00\n        /* \"#utility.yul\":8014:8016   */\n      0x20\n        /* \"#utility.yul\":8003:8012   */\n      dup3\n        /* \"#utility.yul\":7999:8017   */\n      add\n        /* \"#utility.yul\":7991:8017   */\n      swap1\n      pop\n        /* \"#utility.yul\":8027:8098   */\n      tag_189\n        /* \"#utility.yul\":8095:8096   */\n      0x00\n        /* \"#utility.yul\":8084:8093   */\n      dup4\n        /* \"#utility.yul\":8080:8097   */\n      add\n        /* \"#utility.yul\":8071:8077   */\n      dup5\n        /* \"#utility.yul\":8027:8098   */\n      tag_91\n      jump\t// in\n    tag_189:\n        /* \"#utility.yul\":7883:8105   */\n      swap3\n      swap2\n      pop\n      pop\n      jump\t// out\n\n    auxdata: 0xa2646970667358221220974756e88ca9841130b0b1248afda54ed2c4a2c40210e041decdd8d8751881e964736f6c634300081a0033\n}\n",
				"bytecode": {
					"linkReferences": {},
					"object": "60a060405234801561000f575f80fd5b50604051610c7e380380610c7e833981810160405281019061003191906100c9565b8073ffffffffffffffffffffffffffffffffffffffff1660808173ffffffffffffffffffffffffffffffffffffffff1681525050506100f4565b5f80fd5b5f73ffffffffffffffffffffffffffffffffffffffff82169050919050565b5f6100988261006f565b9050919050565b6100a88161008e565b81146100b2575f80fd5b50565b5f815190506100c38161009f565b92915050565b5f602082840312156100de576100dd61006b565b5b5f6100eb848285016100b5565b91505092915050565b608051610b6b6101135f395f81816101ec01526104170152610b6b5ff3fe608060405234801561000f575f80fd5b5060043610610055575f3560e01c80632e1a7d4d14610059578063a9059cbb14610075578063b6b55f2514610091578063c9116b69146100ad578063cb13cddb146100cb575b5f80fd5b610073600480360381019061006e9190610704565b6100fb565b005b61008f600480360381019061008a9190610789565b610269565b005b6100ab60048036038101906100a69190610704565b6103ff565b005b6100b5610546565b6040516100c291906107d6565b60405180910390f35b6100e560048036038101906100e091906107ef565b61059f565b6040516100f291906107d6565b60405180910390f35b80670de0b6b3a7640000816101109190610847565b90505f805f3373ffffffffffffffffffffffffffffffffffffffff1673ffffffffffffffffffffffffffffffffffffffff1681526020019081526020015f205490505f803373ffffffffffffffffffffffffffffffffffffffff1673ffffffffffffffffffffffffffffffffffffffff1681526020019081526020015f20548211156101d1576040517f08c379a00000000000000000000000000000000000000000000000000000000081526004016101c890610908565b60405180910390fd5b670de0b6b3a7640000836101e59190610847565b92506102127f000000000000000000000000000000000000000000000000000000000000000033856105b3565b825f803373ffffffffffffffffffffffffffffffffffffffff1673ffffffffffffffffffffffffffffffffffffffff1681526020019081526020015f205f82825461025d9190610926565b92505081905550505050565b80670de0b6b3a76400008161027e9190610847565b90505f805f3373ffffffffffffffffffffffffffffffffffffffff1673ffffffffffffffffffffffffffffffffffffffff1681526020019081526020015f205490505f803373ffffffffffffffffffffffffffffffffffffffff1673ffffffffffffffffffffffffffffffffffffffff1681526020019081526020015f205482111561033f576040517f08c379a000000000000000000000000000000000000000000000000000000000815260040161033690610908565b60405180910390fd5b670de0b6b3a7640000836103539190610847565b9250825f803373ffffffffffffffffffffffffffffffffffffffff1673ffffffffffffffffffffffffffffffffffffffff1681526020019081526020015f205f8282546103a09190610926565b92505081905550825f808673ffffffffffffffffffffffffffffffffffffffff1673ffffffffffffffffffffffffffffffffffffffff1681526020019081526020015f205f8282546103f29190610959565b9250508190555050505050565b670de0b6b3a7640000816104139190610847565b90507f000000000000000000000000000000000000000000000000000000000000000073ffffffffffffffffffffffffffffffffffffffff166323b872dd3330846040518463ffffffff1660e01b81526004016104729392919061099b565b6020604051808303815f875af115801561048e573d5f803e3d5ffd5b505050506040513d601f19601f820116820180604052508101906104b29190610a05565b6104f1576040517f08c379a00000000000000000000000000000000000000000000000000000000081526004016104e890610a7a565b60405180910390fd5b805f803373ffffffffffffffffffffffffffffffffffffffff1673ffffffffffffffffffffffffffffffffffffffff1681526020019081526020015f205f82825461053c9190610959565b9250508190555050565b5f805f3373ffffffffffffffffffffffffffffffffffffffff1673ffffffffffffffffffffffffffffffffffffffff1681526020019081526020015f20549050670de0b6b3a76400008161059a9190610ac5565b905090565b5f602052805f5260405f205f915090505481565b61062d838473ffffffffffffffffffffffffffffffffffffffff1663a9059cbb85856040516024016105e6929190610af5565b604051602081830303815290604052915060e01b6020820180517bffffffffffffffffffffffffffffffffffffffffffffffffffffffff8381831617835250505050610632565b505050565b5f8060205f8451602086015f885af180610651576040513d5f823e3d81fd5b3d92505f519150505f821461066a576001811415610685565b5f8473ffffffffffffffffffffffffffffffffffffffff163b145b156106c757836040517f5274afe70000000000000000000000000000000000000000000000000000000081526004016106be9190610b1c565b60405180910390fd5b50505050565b5f80fd5b5f819050919050565b6106e3816106d1565b81146106ed575f80fd5b50565b5f813590506106fe816106da565b92915050565b5f60208284031215610719576107186106cd565b5b5f610726848285016106f0565b91505092915050565b5f73ffffffffffffffffffffffffffffffffffffffff82169050919050565b5f6107588261072f565b9050919050565b6107688161074e565b8114610772575f80fd5b50565b5f813590506107838161075f565b92915050565b5f806040838503121561079f5761079e6106cd565b5b5f6107ac85828601610775565b92505060206107bd858286016106f0565b9150509250929050565b6107d0816106d1565b82525050565b5f6020820190506107e95f8301846107c7565b92915050565b5f60208284031215610804576108036106cd565b5b5f61081184828501610775565b91505092915050565b7f4e487b71000000000000000000000000000000000000000000000000000000005f52601160045260245ffd5b5f610851826106d1565b915061085c836106d1565b925082820261086a816106d1565b915082820484148315176108815761088061081a565b5b5092915050565b5f82825260208201905092915050565b7f776974686472617720616d6f756e742073686f756c64206e6f742067726561745f8201527f6572207468616e206465706f73697420616d6f756e7400000000000000000000602082015250565b5f6108f2603683610888565b91506108fd82610898565b604082019050919050565b5f6020820190508181035f83015261091f816108e6565b9050919050565b5f610930826106d1565b915061093b836106d1565b92508282039050818111156109535761095261081a565b5b92915050565b5f610963826106d1565b915061096e836106d1565b92508282019050808211156109865761098561081a565b5b92915050565b6109958161074e565b82525050565b5f6060820190506109ae5f83018661098c565b6109bb602083018561098c565b6109c860408301846107c7565b949350505050565b5f8115159050919050565b6109e4816109d0565b81146109ee575f80fd5b50565b5f815190506109ff816109db565b92915050565b5f60208284031215610a1a57610a196106cd565b5b5f610a27848285016109f1565b91505092915050565b7f6465706f736974206572726f72210000000000000000000000000000000000005f82015250565b5f610a64600e83610888565b9150610a6f82610a30565b602082019050919050565b5f6020820190508181035f830152610a9181610a58565b9050919050565b7f4e487b71000000000000000000000000000000000000000000000000000000005f52601260045260245ffd5b5f610acf826106d1565b9150610ada836106d1565b925082610aea57610ae9610a98565b5b828204905092915050565b5f604082019050610b085f83018561098c565b610b1560208301846107c7565b9392505050565b5f602082019050610b2f5f83018461098c565b9291505056fea2646970667358221220974756e88ca9841130b0b1248afda54ed2c4a2c40210e041decdd8d8751881e964736f6c634300081a0033",
					"opcodes": "PUSH1 0xA0 PUSH1 0x40 MSTORE CALLVALUE DUP1 ISZERO PUSH2 0xF JUMPI PUSH0 DUP1 REVERT JUMPDEST POP PUSH1 0x40 MLOAD PUSH2 0xC7E CODESIZE SUB DUP1 PUSH2 0xC7E DUP4 CODECOPY DUP2 DUP2 ADD PUSH1 0x40 MSTORE DUP2 ADD SWAP1 PUSH2 0x31 SWAP2 SWAP1 PUSH2 0xC9 JUMP JUMPDEST DUP1 PUSH20 0xFFFFFFFFFFFFFFFFFFFFFFFFFFFFFFFFFFFFFFFF AND PUSH1 0x80 DUP2 PUSH20 0xFFFFFFFFFFFFFFFFFFFFFFFFFFFFFFFFFFFFFFFF AND DUP2 MSTORE POP POP POP PUSH2 0xF4 JUMP JUMPDEST PUSH0 DUP1 REVERT JUMPDEST PUSH0 PUSH20 0xFFFFFFFFFFFFFFFFFFFFFFFFFFFFFFFFFFFFFFFF DUP3 AND SWAP1 POP SWAP2 SWAP1 POP JUMP JUMPDEST PUSH0 PUSH2 0x98 DUP3 PUSH2 0x6F JUMP JUMPDEST SWAP1 POP SWAP2 SWAP1 POP JUMP JUMPDEST PUSH2 0xA8 DUP2 PUSH2 0x8E JUMP JUMPDEST DUP2 EQ PUSH2 0xB2 JUMPI PUSH0 DUP1 REVERT JUMPDEST POP JUMP JUMPDEST PUSH0 DUP2 MLOAD SWAP1 POP PUSH2 0xC3 DUP2 PUSH2 0x9F JUMP JUMPDEST SWAP3 SWAP2 POP POP JUMP JUMPDEST PUSH0 PUSH1 0x20 DUP3 DUP5 SUB SLT ISZERO PUSH2 0xDE JUMPI PUSH2 0xDD PUSH2 0x6B JUMP JUMPDEST JUMPDEST PUSH0 PUSH2 0xEB DUP5 DUP3 DUP6 ADD PUSH2 0xB5 JUMP JUMPDEST SWAP2 POP POP SWAP3 SWAP2 POP POP JUMP JUMPDEST PUSH1 0x80 MLOAD PUSH2 0xB6B PUSH2 0x113 PUSH0 CODECOPY PUSH0 DUP2 DUP2 PUSH2 0x1EC ADD MSTORE PUSH2 0x417 ADD MSTORE PUSH2 0xB6B PUSH0 RETURN INVALID PUSH1 0x80 PUSH1 0x40 MSTORE CALLVALUE DUP1 ISZERO PUSH2 0xF JUMPI PUSH0 DUP1 REVERT JUMPDEST POP PUSH1 0x4 CALLDATASIZE LT PUSH2 0x55 JUMPI PUSH0 CALLDATALOAD PUSH1 0xE0 SHR DUP1 PUSH4 0x2E1A7D4D EQ PUSH2 0x59 JUMPI DUP1 PUSH4 0xA9059CBB EQ PUSH2 0x75 JUMPI DUP1 PUSH4 0xB6B55F25 EQ PUSH2 0x91 JUMPI DUP1 PUSH4 0xC9116B69 EQ PUSH2 0xAD JUMPI DUP1 PUSH4 0xCB13CDDB EQ PUSH2 0xCB JUMPI JUMPDEST PUSH0 DUP1 REVERT JUMPDEST PUSH2 0x73 PUSH1 0x4 DUP1 CALLDATASIZE SUB DUP2 ADD SWAP1 PUSH2 0x6E SWAP2 SWAP1 PUSH2 0x704 JUMP JUMPDEST PUSH2 0xFB JUMP JUMPDEST STOP JUMPDEST PUSH2 0x8F PUSH1 0x4 DUP1 CALLDATASIZE SUB DUP2 ADD SWAP1 PUSH2 0x8A SWAP2 SWAP1 PUSH2 0x789 JUMP JUMPDEST PUSH2 0x269 JUMP JUMPDEST STOP JUMPDEST PUSH2 0xAB PUSH1 0x4 DUP1 CALLDATASIZE SUB DUP2 ADD SWAP1 PUSH2 0xA6 SWAP2 SWAP1 PUSH2 0x704 JUMP JUMPDEST PUSH2 0x3FF JUMP JUMPDEST STOP JUMPDEST PUSH2 0xB5 PUSH2 0x546 JUMP JUMPDEST PUSH1 0x40 MLOAD PUSH2 0xC2 SWAP2 SWAP1 PUSH2 0x7D6 JUMP JUMPDEST PUSH1 0x40 MLOAD DUP1 SWAP2 SUB SWAP1 RETURN JUMPDEST PUSH2 0xE5 PUSH1 0x4 DUP1 CALLDATASIZE SUB DUP2 ADD SWAP1 PUSH2 0xE0 SWAP2 SWAP1 PUSH2 0x7EF JUMP JUMPDEST PUSH2 0x59F JUMP JUMPDEST PUSH1 0x40 MLOAD PUSH2 0xF2 SWAP2 SWAP1 PUSH2 0x7D6 JUMP JUMPDEST PUSH1 0x40 MLOAD DUP1 SWAP2 SUB SWAP1 RETURN JUMPDEST DUP1 PUSH8 0xDE0B6B3A7640000 DUP2 PUSH2 0x110 SWAP2 SWAP1 PUSH2 0x847 JUMP JUMPDEST SWAP1 POP PUSH0 DUP1 PUSH0 CALLER PUSH20 0xFFFFFFFFFFFFFFFFFFFFFFFFFFFFFFFFFFFFFFFF AND PUSH20 0xFFFFFFFFFFFFFFFFFFFFFFFFFFFFFFFFFFFFFFFF AND DUP2 MSTORE PUSH1 0x20 ADD SWAP1 DUP2 MSTORE PUSH1 0x20 ADD PUSH0 KECCAK256 SLOAD SWAP1 POP PUSH0 DUP1 CALLER PUSH20 0xFFFFFFFFFFFFFFFFFFFFFFFFFFFFFFFFFFFFFFFF AND PUSH20 0xFFFFFFFFFFFFFFFFFFFFFFFFFFFFFFFFFFFFFFFF AND DUP2 MSTORE PUSH1 0x20 ADD SWAP1 DUP2 MSTORE PUSH1 0x20 ADD PUSH0 KECCAK256 SLOAD DUP3 GT ISZERO PUSH2 0x1D1 JUMPI PUSH1 0x40 MLOAD PUSH32 0x8C379A000000000000000000000000000000000000000000000000000000000 DUP2 MSTORE PUSH1 0x4 ADD PUSH2 0x1C8 SWAP1 PUSH2 0x908 JUMP JUMPDEST PUSH1 0x40 MLOAD DUP1 SWAP2 SUB SWAP1 REVERT JUMPDEST PUSH8 0xDE0B6B3A7640000 DUP4 PUSH2 0x1E5 SWAP2 SWAP1 PUSH2 0x847 JUMP JUMPDEST SWAP3 POP PUSH2 0x212 PUSH32 0x0 CALLER DUP6 PUSH2 0x5B3 JUMP JUMPDEST DUP3 PUSH0 DUP1 CALLER PUSH20 0xFFFFFFFFFFFFFFFFFFFFFFFFFFFFFFFFFFFFFFFF AND PUSH20 0xFFFFFFFFFFFFFFFFFFFFFFFFFFFFFFFFFFFFFFFF AND DUP2 MSTORE PUSH1 0x20 ADD SWAP1 DUP2 MSTORE PUSH1 0x20 ADD PUSH0 KECCAK256 PUSH0 DUP3 DUP3 SLOAD PUSH2 0x25D SWAP2 SWAP1 PUSH2 0x926 JUMP JUMPDEST SWAP3 POP POP DUP2 SWAP1 SSTORE POP POP POP POP JUMP JUMPDEST DUP1 PUSH8 0xDE0B6B3A7640000 DUP2 PUSH2 0x27E SWAP2 SWAP1 PUSH2 0x847 JUMP JUMPDEST SWAP1 POP PUSH0 DUP1 PUSH0 CALLER PUSH20 0xFFFFFFFFFFFFFFFFFFFFFFFFFFFFFFFFFFFFFFFF AND PUSH20 0xFFFFFFFFFFFFFFFFFFFFFFFFFFFFFFFFFFFFFFFF AND DUP2 MSTORE PUSH1 0x20 ADD SWAP1 DUP2 MSTORE PUSH1 0x20 ADD PUSH0 KECCAK256 SLOAD SWAP1 POP PUSH0 DUP1 CALLER PUSH20 0xFFFFFFFFFFFFFFFFFFFFFFFFFFFFFFFFFFFFFFFF AND PUSH20 0xFFFFFFFFFFFFFFFFFFFFFFFFFFFFFFFFFFFFFFFF AND DUP2 MSTORE PUSH1 0x20 ADD SWAP1 DUP2 MSTORE PUSH1 0x20 ADD PUSH0 KECCAK256 SLOAD DUP3 GT ISZERO PUSH2 0x33F JUMPI PUSH1 0x40 MLOAD PUSH32 0x8C379A000000000000000000000000000000000000000000000000000000000 DUP2 MSTORE PUSH1 0x4 ADD PUSH2 0x336 SWAP1 PUSH2 0x908 JUMP JUMPDEST PUSH1 0x40 MLOAD DUP1 SWAP2 SUB SWAP1 REVERT JUMPDEST PUSH8 0xDE0B6B3A7640000 DUP4 PUSH2 0x353 SWAP2 SWAP1 PUSH2 0x847 JUMP JUMPDEST SWAP3 POP DUP3 PUSH0 DUP1 CALLER PUSH20 0xFFFFFFFFFFFFFFFFFFFFFFFFFFFFFFFFFFFFFFFF AND PUSH20 0xFFFFFFFFFFFFFFFFFFFFFFFFFFFFFFFFFFFFFFFF AND DUP2 MSTORE PUSH1 0x20 ADD SWAP1 DUP2 MSTORE PUSH1 0x20 ADD PUSH0 KECCAK256 PUSH0 DUP3 DUP3 SLOAD PUSH2 0x3A0 SWAP2 SWAP1 PUSH2 0x926 JUMP JUMPDEST SWAP3 POP POP DUP2 SWAP1 SSTORE POP DUP3 PUSH0 DUP1 DUP7 PUSH20 0xFFFFFFFFFFFFFFFFFFFFFFFFFFFFFFFFFFFFFFFF AND PUSH20 0xFFFFFFFFFFFFFFFFFFFFFFFFFFFFFFFFFFFFFFFF AND DUP2 MSTORE PUSH1 0x20 ADD SWAP1 DUP2 MSTORE PUSH1 0x20 ADD PUSH0 KECCAK256 PUSH0 DUP3 DUP3 SLOAD PUSH2 0x3F2 SWAP2 SWAP1 PUSH2 0x959 JUMP JUMPDEST SWAP3 POP POP DUP2 SWAP1 SSTORE POP POP POP POP POP JUMP JUMPDEST PUSH8 0xDE0B6B3A7640000 DUP2 PUSH2 0x413 SWAP2 SWAP1 PUSH2 0x847 JUMP JUMPDEST SWAP1 POP PUSH32 0x0 PUSH20 0xFFFFFFFFFFFFFFFFFFFFFFFFFFFFFFFFFFFFFFFF AND PUSH4 0x23B872DD CALLER ADDRESS DUP5 PUSH1 0x40 MLOAD DUP5 PUSH4 0xFFFFFFFF AND PUSH1 0xE0 SHL DUP2 MSTORE PUSH1 0x4 ADD PUSH2 0x472 SWAP4 SWAP3 SWAP2 SWAP1 PUSH2 0x99B JUMP JUMPDEST PUSH1 0x20 PUSH1 0x40 MLOAD DUP1 DUP4 SUB DUP2 PUSH0 DUP8 GAS CALL ISZERO DUP1 ISZERO PUSH2 0x48E JUMPI RETURNDATASIZE PUSH0 DUP1 RETURNDATACOPY RETURNDATASIZE PUSH0 REVERT JUMPDEST POP POP POP POP PUSH1 0x40 MLOAD RETURNDATASIZE PUSH1 0x1F NOT PUSH1 0x1F DUP3 ADD AND DUP3 ADD DUP1 PUSH1 0x40 MSTORE POP DUP2 ADD SWAP1 PUSH2 0x4B2 SWAP2 SWAP1 PUSH2 0xA05 JUMP JUMPDEST PUSH2 0x4F1 JUMPI PUSH1 0x40 MLOAD PUSH32 0x8C379A000000000000000000000000000000000000000000000000000000000 DUP2 MSTORE PUSH1 0x4 ADD PUSH2 0x4E8 SWAP1 PUSH2 0xA7A JUMP JUMPDEST PUSH1 0x40 MLOAD DUP1 SWAP2 SUB SWAP1 REVERT JUMPDEST DUP1 PUSH0 DUP1 CALLER PUSH20 0xFFFFFFFFFFFFFFFFFFFFFFFFFFFFFFFFFFFFFFFF AND PUSH20 0xFFFFFFFFFFFFFFFFFFFFFFFFFFFFFFFFFFFFFFFF AND DUP2 MSTORE PUSH1 0x20 ADD SWAP1 DUP2 MSTORE PUSH1 0x20 ADD PUSH0 KECCAK256 PUSH0 DUP3 DUP3 SLOAD PUSH2 0x53C SWAP2 SWAP1 PUSH2 0x959 JUMP JUMPDEST SWAP3 POP POP DUP2 SWAP1 SSTORE POP POP JUMP JUMPDEST PUSH0 DUP1 PUSH0 CALLER PUSH20 0xFFFFFFFFFFFFFFFFFFFFFFFFFFFFFFFFFFFFFFFF AND PUSH20 0xFFFFFFFFFFFFFFFFFFFFFFFFFFFFFFFFFFFFFFFF AND DUP2 MSTORE PUSH1 0x20 ADD SWAP1 DUP2 MSTORE PUSH1 0x20 ADD PUSH0 KECCAK256 SLOAD SWAP1 POP PUSH8 0xDE0B6B3A7640000 DUP2 PUSH2 0x59A SWAP2 SWAP1 PUSH2 0xAC5 JUMP JUMPDEST SWAP1 POP SWAP1 JUMP JUMPDEST PUSH0 PUSH1 0x20 MSTORE DUP1 PUSH0 MSTORE PUSH1 0x40 PUSH0 KECCAK256 PUSH0 SWAP2 POP SWAP1 POP SLOAD DUP2 JUMP JUMPDEST PUSH2 0x62D DUP4 DUP5 PUSH20 0xFFFFFFFFFFFFFFFFFFFFFFFFFFFFFFFFFFFFFFFF AND PUSH4 0xA9059CBB DUP6 DUP6 PUSH1 0x40 MLOAD PUSH1 0x24 ADD PUSH2 0x5E6 SWAP3 SWAP2 SWAP1 PUSH2 0xAF5 JUMP JUMPDEST PUSH1 0x40 MLOAD PUSH1 0x20 DUP2 DUP4 SUB SUB DUP2 MSTORE SWAP1 PUSH1 0x40 MSTORE SWAP2 POP PUSH1 0xE0 SHL PUSH1 0x20 DUP3 ADD DUP1 MLOAD PUSH28 0xFFFFFFFFFFFFFFFFFFFFFFFFFFFFFFFFFFFFFFFFFFFFFFFFFFFFFFFF DUP4 DUP2 DUP4 AND OR DUP4 MSTORE POP POP POP POP PUSH2 0x632 JUMP JUMPDEST POP POP POP JUMP JUMPDEST PUSH0 DUP1 PUSH1 0x20 PUSH0 DUP5 MLOAD PUSH1 0x20 DUP7 ADD PUSH0 DUP9 GAS CALL DUP1 PUSH2 0x651 JUMPI PUSH1 0x40 MLOAD RETURNDATASIZE PUSH0 DUP3 RETURNDATACOPY RETURNDATASIZE DUP2 REVERT JUMPDEST RETURNDATASIZE SWAP3 POP PUSH0 MLOAD SWAP2 POP POP PUSH0 DUP3 EQ PUSH2 0x66A JUMPI PUSH1 0x1 DUP2 EQ ISZERO PUSH2 0x685 JUMP JUMPDEST PUSH0 DUP5 PUSH20 0xFFFFFFFFFFFFFFFFFFFFFFFFFFFFFFFFFFFFFFFF AND EXTCODESIZE EQ JUMPDEST ISZERO PUSH2 0x6C7 JUMPI DUP4 PUSH1 0x40 MLOAD PUSH32 0x5274AFE700000000000000000000000000000000000000000000000000000000 DUP2 MSTORE PUSH1 0x4 ADD PUSH2 0x6BE SWAP2 SWAP1 PUSH2 0xB1C JUMP JUMPDEST PUSH1 0x40 MLOAD DUP1 SWAP2 SUB SWAP1 REVERT JUMPDEST POP POP POP POP JUMP JUMPDEST PUSH0 DUP1 REVERT JUMPDEST PUSH0 DUP2 SWAP1 POP SWAP2 SWAP1 POP JUMP JUMPDEST PUSH2 0x6E3 DUP2 PUSH2 0x6D1 JUMP JUMPDEST DUP2 EQ PUSH2 0x6ED JUMPI PUSH0 DUP1 REVERT JUMPDEST POP JUMP JUMPDEST PUSH0 DUP2 CALLDATALOAD SWAP1 POP PUSH2 0x6FE DUP2 PUSH2 0x6DA JUMP JUMPDEST SWAP3 SWAP2 POP POP JUMP JUMPDEST PUSH0 PUSH1 0x20 DUP3 DUP5 SUB SLT ISZERO PUSH2 0x719 JUMPI PUSH2 0x718 PUSH2 0x6CD JUMP JUMPDEST JUMPDEST PUSH0 PUSH2 0x726 DUP5 DUP3 DUP6 ADD PUSH2 0x6F0 JUMP JUMPDEST SWAP2 POP POP SWAP3 SWAP2 POP POP JUMP JUMPDEST PUSH0 PUSH20 0xFFFFFFFFFFFFFFFFFFFFFFFFFFFFFFFFFFFFFFFF DUP3 AND SWAP1 POP SWAP2 SWAP1 POP JUMP JUMPDEST PUSH0 PUSH2 0x758 DUP3 PUSH2 0x72F JUMP JUMPDEST SWAP1 POP SWAP2 SWAP1 POP JUMP JUMPDEST PUSH2 0x768 DUP2 PUSH2 0x74E JUMP JUMPDEST DUP2 EQ PUSH2 0x772 JUMPI PUSH0 DUP1 REVERT JUMPDEST POP JUMP JUMPDEST PUSH0 DUP2 CALLDATALOAD SWAP1 POP PUSH2 0x783 DUP2 PUSH2 0x75F JUMP JUMPDEST SWAP3 SWAP2 POP POP JUMP JUMPDEST PUSH0 DUP1 PUSH1 0x40 DUP4 DUP6 SUB SLT ISZERO PUSH2 0x79F JUMPI PUSH2 0x79E PUSH2 0x6CD JUMP JUMPDEST JUMPDEST PUSH0 PUSH2 0x7AC DUP6 DUP3 DUP7 ADD PUSH2 0x775 JUMP JUMPDEST SWAP3 POP POP PUSH1 0x20 PUSH2 0x7BD DUP6 DUP3 DUP7 ADD PUSH2 0x6F0 JUMP JUMPDEST SWAP2 POP POP SWAP3 POP SWAP3 SWAP1 POP JUMP JUMPDEST PUSH2 0x7D0 DUP2 PUSH2 0x6D1 JUMP JUMPDEST DUP3 MSTORE POP POP JUMP JUMPDEST PUSH0 PUSH1 0x20 DUP3 ADD SWAP1 POP PUSH2 0x7E9 PUSH0 DUP4 ADD DUP5 PUSH2 0x7C7 JUMP JUMPDEST SWAP3 SWAP2 POP POP JUMP JUMPDEST PUSH0 PUSH1 0x20 DUP3 DUP5 SUB SLT ISZERO PUSH2 0x804 JUMPI PUSH2 0x803 PUSH2 0x6CD JUMP JUMPDEST JUMPDEST PUSH0 PUSH2 0x811 DUP5 DUP3 DUP6 ADD PUSH2 0x775 JUMP JUMPDEST SWAP2 POP POP SWAP3 SWAP2 POP POP JUMP JUMPDEST PUSH32 0x4E487B7100000000000000000000000000000000000000000000000000000000 PUSH0 MSTORE PUSH1 0x11 PUSH1 0x4 MSTORE PUSH1 0x24 PUSH0 REVERT JUMPDEST PUSH0 PUSH2 0x851 DUP3 PUSH2 0x6D1 JUMP JUMPDEST SWAP2 POP PUSH2 0x85C DUP4 PUSH2 0x6D1 JUMP JUMPDEST SWAP3 POP DUP3 DUP3 MUL PUSH2 0x86A DUP2 PUSH2 0x6D1 JUMP JUMPDEST SWAP2 POP DUP3 DUP3 DIV DUP5 EQ DUP4 ISZERO OR PUSH2 0x881 JUMPI PUSH2 0x880 PUSH2 0x81A JUMP JUMPDEST JUMPDEST POP SWAP3 SWAP2 POP POP JUMP JUMPDEST PUSH0 DUP3 DUP3 MSTORE PUSH1 0x20 DUP3 ADD SWAP1 POP SWAP3 SWAP2 POP POP JUMP JUMPDEST PUSH32 0x776974686472617720616D6F756E742073686F756C64206E6F74206772656174 PUSH0 DUP3 ADD MSTORE PUSH32 0x6572207468616E206465706F73697420616D6F756E7400000000000000000000 PUSH1 0x20 DUP3 ADD MSTORE POP JUMP JUMPDEST PUSH0 PUSH2 0x8F2 PUSH1 0x36 DUP4 PUSH2 0x888 JUMP JUMPDEST SWAP2 POP PUSH2 0x8FD DUP3 PUSH2 0x898 JUMP JUMPDEST PUSH1 0x40 DUP3 ADD SWAP1 POP SWAP2 SWAP1 POP JUMP JUMPDEST PUSH0 PUSH1 0x20 DUP3 ADD SWAP1 POP DUP2 DUP2 SUB PUSH0 DUP4 ADD MSTORE PUSH2 0x91F DUP2 PUSH2 0x8E6 JUMP JUMPDEST SWAP1 POP SWAP2 SWAP1 POP JUMP JUMPDEST PUSH0 PUSH2 0x930 DUP3 PUSH2 0x6D1 JUMP JUMPDEST SWAP2 POP PUSH2 0x93B DUP4 PUSH2 0x6D1 JUMP JUMPDEST SWAP3 POP DUP3 DUP3 SUB SWAP1 POP DUP2 DUP2 GT ISZERO PUSH2 0x953 JUMPI PUSH2 0x952 PUSH2 0x81A JUMP JUMPDEST JUMPDEST SWAP3 SWAP2 POP POP JUMP JUMPDEST PUSH0 PUSH2 0x963 DUP3 PUSH2 0x6D1 JUMP JUMPDEST SWAP2 POP PUSH2 0x96E DUP4 PUSH2 0x6D1 JUMP JUMPDEST SWAP3 POP DUP3 DUP3 ADD SWAP1 POP DUP1 DUP3 GT ISZERO PUSH2 0x986 JUMPI PUSH2 0x985 PUSH2 0x81A JUMP JUMPDEST JUMPDEST SWAP3 SWAP2 POP POP JUMP JUMPDEST PUSH2 0x995 DUP2 PUSH2 0x74E JUMP JUMPDEST DUP3 MSTORE POP POP JUMP JUMPDEST PUSH0 PUSH1 0x60 DUP3 ADD SWAP1 POP PUSH2 0x9AE PUSH0 DUP4 ADD DUP7 PUSH2 0x98C JUMP JUMPDEST PUSH2 0x9BB PUSH1 0x20 DUP4 ADD DUP6 PUSH2 0x98C JUMP JUMPDEST PUSH2 0x9C8 PUSH1 0x40 DUP4 ADD DUP5 PUSH2 0x7C7 JUMP JUMPDEST SWAP5 SWAP4 POP POP POP POP JUMP JUMPDEST PUSH0 DUP2 ISZERO ISZERO SWAP1 POP SWAP2 SWAP1 POP JUMP JUMPDEST PUSH2 0x9E4 DUP2 PUSH2 0x9D0 JUMP JUMPDEST DUP2 EQ PUSH2 0x9EE JUMPI PUSH0 DUP1 REVERT JUMPDEST POP JUMP JUMPDEST PUSH0 DUP2 MLOAD SWAP1 POP PUSH2 0x9FF DUP2 PUSH2 0x9DB JUMP JUMPDEST SWAP3 SWAP2 POP POP JUMP JUMPDEST PUSH0 PUSH1 0x20 DUP3 DUP5 SUB SLT ISZERO PUSH2 0xA1A JUMPI PUSH2 0xA19 PUSH2 0x6CD JUMP JUMPDEST JUMPDEST PUSH0 PUSH2 0xA27 DUP5 DUP3 DUP6 ADD PUSH2 0x9F1 JUMP JUMPDEST SWAP2 POP POP SWAP3 SWAP2 POP POP JUMP JUMPDEST PUSH32 0x6465706F736974206572726F7221000000000000000000000000000000000000 PUSH0 DUP3 ADD MSTORE POP JUMP JUMPDEST PUSH0 PUSH2 0xA64 PUSH1 0xE DUP4 PUSH2 0x888 JUMP JUMPDEST SWAP2 POP PUSH2 0xA6F DUP3 PUSH2 0xA30 JUMP JUMPDEST PUSH1 0x20 DUP3 ADD SWAP1 POP SWAP2 SWAP1 POP JUMP JUMPDEST PUSH0 PUSH1 0x20 DUP3 ADD SWAP1 POP DUP2 DUP2 SUB PUSH0 DUP4 ADD MSTORE PUSH2 0xA91 DUP2 PUSH2 0xA58 JUMP JUMPDEST SWAP1 POP SWAP2 SWAP1 POP JUMP JUMPDEST PUSH32 0x4E487B7100000000000000000000000000000000000000000000000000000000 PUSH0 MSTORE PUSH1 0x12 PUSH1 0x4 MSTORE PUSH1 0x24 PUSH0 REVERT JUMPDEST PUSH0 PUSH2 0xACF DUP3 PUSH2 0x6D1 JUMP JUMPDEST SWAP2 POP PUSH2 0xADA DUP4 PUSH2 0x6D1 JUMP JUMPDEST SWAP3 POP DUP3 PUSH2 0xAEA JUMPI PUSH2 0xAE9 PUSH2 0xA98 JUMP JUMPDEST JUMPDEST DUP3 DUP3 DIV SWAP1 POP SWAP3 SWAP2 POP POP JUMP JUMPDEST PUSH0 PUSH1 0x40 DUP3 ADD SWAP1 POP PUSH2 0xB08 PUSH0 DUP4 ADD DUP6 PUSH2 0x98C JUMP JUMPDEST PUSH2 0xB15 PUSH1 0x20 DUP4 ADD DUP5 PUSH2 0x7C7 JUMP JUMPDEST SWAP4 SWAP3 POP POP POP JUMP JUMPDEST PUSH0 PUSH1 0x20 DUP3 ADD SWAP1 POP PUSH2 0xB2F PUSH0 DUP4 ADD DUP5 PUSH2 0x98C JUMP JUMPDEST SWAP3 SWAP2 POP POP JUMP INVALID LOG2 PUSH5 0x6970667358 0x22 SLT KECCAK256 SWAP8 SELFBALANCE JUMP 0xE8 DUP13 0xA9 DUP5 GT ADDRESS 0xB0 0xB1 0x24 DUP11 REVERT 0xA5 0x4E 0xD2 0xC4 LOG2 0xC4 MUL LT 0xE0 COINBASE 0xDE 0xCD 0xD8 0xD8 PUSH22 0x1881E964736F6C634300081A00330000000000000000 "
				},
				"gasEstimates": {
					"creation": {
						"codeDepositCost": "584600",
						"executionCost": "infinite",
						"totalCost": "infinite"
					},
					"external": {
						"deposit(uint256)": "infinite",
						"deposited(address)": "2867",
						"myBalance()": "infinite",
						"transfer(address,uint256)": "infinite",
						"withdraw(uint256)": "infinite"
					}
				},
				"methodIdentifiers": {
					"deposit(uint256)": "b6b55f25",
					"deposited(address)": "cb13cddb",
					"myBalance()": "c9116b69",
					"transfer(address,uint256)": "a9059cbb",
					"withdraw(uint256)": "2e1a7d4d"
				}
			},
			"storageLayout": {
				"storage": [
					{
						"astId": 879,
						"contract": "contracts/Bank.sol:Bank",
						"label": "deposited",
						"offset": 0,
						"slot": "0",
						"type": "t_mapping(t_address,t_uint256)"
					}
				],
				"types": {
					"t_address": {
						"encoding": "inplace",
						"label": "address",
						"numberOfBytes": "20"
					},
					"t_mapping(t_address,t_uint256)": {
						"encoding": "mapping",
						"key": "t_address",
						"label": "mapping(address => uint256)",
						"numberOfBytes": "32",
						"value": "t_uint256"
					},
					"t_uint256": {
						"encoding": "inplace",
						"label": "uint256",
						"numberOfBytes": "32"
					}
				}
			},
			"userdoc": {
				"kind": "user",
				"methods": {
					"withdraw(uint256)": {
						"notice": "withdraw 取款 这里使用了SafeERC20.safeTransfer()方法，因为直接使用transfer方法的时候， 有些代币的协议不支持bool类型的返回值，无法遵循(bool)IERC20.transfer() ， 使用safeTransfer可以直接调用底层的ABI来查询transfer的情况（类似Java中的反射机制）， 更加有保障，同时其方法本身实现了异常处理机制，不用require了"
					}
				},
				"version": 1
			}
		}
	}
}